:100000000C9436000C9471100C9498100C945E00B3
:100010000C945E000C945E000C945E000C945E00E8
:100020000C945E000C945E000C945E000C945E00D8
:100030000C945E000C945E000C945E000C945E00C8
:100040000C94770F0C945E000C94F3120C94201314
:100050000C945E000C945E000C945E000C945E00A8
:100060000C945E000C945E006B10461311241FBEAE
:10007000CFEFD8E0DEBFCDBF13E0A0E0B1E0E8E312
:10008000F0E302C005900D92A83FB107D9F728E030
:10009000A8EFB3E001C01D92A73CB207E1F710E062
:1000A000C6E3D0E004C02197FE010E940518C433C6
:1000B000D107C9F70E945C100C94A7140C9400009F
:1000C000E2E10E9405010895E9E00E94050108951A
:1000D000EAE00E9405010895E1E00E94050108950B
:1000E000E3E00E9405010895E7E00E9405010895FC
:1000F000E5E00E9405010895E0E00E9405010895F1
:10010000E2E00E9405010895E4E00E9405010895DF
:10011000ECE00E9405010895E8E00E9405010895C1
:10012000EEE00E9405010895E4E10E9405010895B2
:10013000E0E10E9405010895E7E10E9405010895AC
:10014000E6E00E9405010895EBE00E940501089594
:10015000EDE00E9405010895EFE00E940501089579
:10016000E1E10E9405010895E3E10E94050108957F
:10017000E5E10E9405010895E6E10E940501089568
:1001800021968A929A92AA92BA92CA92DA92EA92A4
:10019000FA920A931A932197E0916D01F0916E0102
:1001A0000080F181E02DC083D1830895C0916F015B
:1001B000D0917001E881F981C081D1812196199196
:1001C0000991F990E990D990C990B990A990999026
:1001D0008990219708952F903F90E7E6F1E0CDB701
:1001E000DEB7EDBFFEBF3F922F9208952F903F9054
:1001F000CDBFDEBF3F922F920895E0E80E94050137
:100200000895E0E40E94050108952F923F924F92D5
:100210005F926F927F922FB62F92CF93DF937E2EB5
:10022000F894E0910001EF5FE0930001E13011F4F8
:100230000E94EB00E0E0E0937D01E72DE07849F0DB
:100240000E944005F0917E01F17071F00E94D6038A
:100250000BC0E72DEC3140F4EE0FF0E0EB54FC4F17
:100260000190F081E02D0995F0917D01EF2FE17073
:1002700059F0F27011F00E94C0008F938F2F0E94EE
:100280001B038F910E94D6002091000121502093E2
:100290000001222311F40E94F600DF91CF912F90EC
:1002A0002FBE7F906F905F904F903F902F9008955A
:1002B000FC014081FB013081842F8F7090E0A0E031
:1002C000B0E0B695A795979587958C549A4FFC0109
:1002D0002081F42FF21B2F2F21704E70242B832F9F
:1002E0008F7090E0A0E0B0E0B695A79597958795C0
:1002F0008C549A4FFC019081F32FF91B9F2F917022
:100300003E70932B41E050E0291708F040E0CA010D
:1003100008958F929F92AF92BF92EF92FF920F93A8
:100320001F93CF93DF937C014A015B01B694A7949E
:1003300097948794423051056105710580F08A01D8
:10034000000F111F0E0D1F1DE401CC0FDD1FCE0D80
:10035000DF1DB801CE010E945801892B59F4DF91AD
:10036000CF911F910F91FF90EF90BF90AF909F9012
:100370008F900895F80190818181288139812083AF
:10038000318398838983A401B501D0CF7F928F9266
:100390009F92AF92BF92CF92DF92EF92FF920F9314
:1003A0001F93CF93DF938C014A015B01FC017080A6
:1003B00064017501CC0CDD1CEE1CFF1C7C141D04BB
:1003C0001E041F0470F4DF91CF911F910F91FF90D5
:1003D000EF90DF90CF90BF90AF909F908F907F90E5
:1003E0000895C601D7010196A11DB11D7816190601
:1003F0001A061B0698F0BC01660F771F600F711F6D
:10040000C601880F991F800F911F0E945801092E65
:10041000000C0008C80ED91EE01CF01CE601CC0F31
:10042000DD1FC00FD11F880C991C800E911EBE01CC
:10043000C4010E945801892B31F2F401908181811D
:10044000288139812083318398838983460157012C
:10045000AFCF4091B9054F5F4093B90550E060E0E0
:1004600070E0E82FEE0FFF0BE459FC4F0190F08194
:10047000E02D2385E22FF0E0EC54FA4F908191506B
:100480009083FA01EE0FFF1FE754FA4F9170220F8D
:10049000922B9083818389EB95E00C9489014091A4
:1004A000B9054F5F4093B90550E060E070E0FA0194
:1004B000EE0FFF1FE754FA4FA82FAA0FBB0BAC5942
:1004C000BC4F0D90BC91A02D13969C91908381837D
:1004D00089EB95E00C948901CF93DF9300D0CDB7E1
:1004E000DEB78091B9059FEF980F9093B905909171
:1004F000BB059A839091BC05998390E0880F991F62
:10050000FC01E754FA4F808191818093BB05909361
:10051000BC0541E050E060E070E089EB95E00E94AE
:10052000C6018A8199810F900F90DF91CF91089534
:100530008091F803811115C04091750150917601A9
:1005400060917701709178014F3F540764077407F9
:1005500051F081E0433051056105710524F082E0DE
:10056000089584E008950895CF93DF93880F990B41
:10057000FC01E459FC4F0190F081E02D0084F185ED
:10058000E02D3097C9F02281211116C021E022838D
:100590008C599C4FEC01A881B98113968C91818371
:1005A0009081E92FF0E0EC54FA4F808181508083F4
:1005B0008170990F892B8C93DF91CF910895CF9300
:1005C000DF93880F990BFC01E459FC4F0190F081F7
:1005D000E02D0084F185E02D309761F022812130FB
:1005E00049F412828C599C4FEC01A881B981818118
:1005F00013968C93DF91CF9108958091790190911A
:100600007A01A0917B01B0917C01409175015091DC
:1006100076016091770170917801481759076A0750
:100620007B0741F0E0917301F091740121E0248394
:100630000C944F020895CF93DF93C0E0D0E0811572
:1006400089F0C0916D01D0916E01E0917101F0913E
:1006500072018481833031F081E08483809175015F
:100660000E944F02E0917301F0917401E0937101D7
:10067000F093720180916F019091700180936D01F0
:1006800090936E018091790130917A0120917B01E4
:1006900090917C01809375013093760120937701CE
:1006A0009093780192E094830E94B402CE01DF918E
:1006B000CF910895809175010E94DF02E091710150
:1006C000F09172018281811185E084830895CF9336
:1006D000DF93282F220F330BF901EC59FC4FC08117
:1006E000D1819A8124593C4FD901ED91FD91248506
:1006F000921780F4911105C095E09C8391E090934E
:100700007E010E9429028A818F5F8A8380E0DF91C7
:10071000CF91089584E0FBCFE82FEE0FFF0BEC594B
:10072000FC4F0190F081E02D108211820C94061094
:10073000CF93DF9300D00F92CDB7DEB70E946C024B
:100740008983892F592F550F550B90937901509319
:100750007A0150937B0150937C01292F220F330B98
:10076000F901EC59FC4F408151814A835B834093EE
:1007700073015093740124593C4FF9012081318158
:1007800020936F0130937001FA019481953031F418
:100790000E948C034981EA81FB81438310927E0190
:1007A0000F900F900F90DF91CF910895E091790114
:1007B000F0917A01EE0FFF1FEC59FC4F0190F08190
:1007C000E02D8091BB059381981740F40E94FD02B3
:1007D0000E94980383E080937D01089580E0FBCF21
:1007E00081E080937D010C949803EF92FF920F9328
:1007F0001F93CF93DF93C1E001C0CC0F8A95EAF736
:10080000209172033091730380916A0390916B037E
:100810001092B90510926D0110926E0120936F0134
:1008200030937001109271011092720180937301E4
:1008300090937401AFEFBFEFCD018093750190935A
:100840007601A0937701B09378018093790190931A
:100850007A01A0937B01B0937C0110927D011092EC
:100860007E0183E00E94670301EB13E0D0E0F80112
:1008700081918F018C2319F08D2F0E946703DF5F18
:10088000D330A9F70EEA13E083E4E82E83E0F82ED4
:10089000F80181918F018C2341F0F70180819181D2
:1008A00021E0FC0126870E948D04F2E0EF0EF11C8E
:1008B00083E0013B180761F7DF91CF911F910F9102
:1008C000FF90EF9008950E94230681110E94430635
:1008D000E0917101F091720180819181892B21F069
:1008E000809175010E9417080C946E070E942306E0
:1008F00081110E944306E0917101F09172018081A3
:100900009181892B21F0809175010E9417080C9428
:10091000530781E08093F9030895CF92DF92EF921D
:10092000FF920F931F93CF93DF93FC01A081B181BE
:100930000D90BC91A02D54962D913D915697211567
:10094000310509F441C0428553856485758500E011
:1009500010E0E901CA84DB84EC84FD844C155D055C
:100960006E057F0508F042C0C9018283938304832A
:100970001583009719F0EC01EC83FD830115110537
:10098000F1F1E801EA83FB835696CD91DD910A856A
:100990001B852C853D851897CD90DD90ED90FD90C1
:1009A00054970C151D052E053F0570F5C416D50688
:1009B000E606F70628F0401751076207730768F448
:1009C0005696ED93FD9309C054968D93FD938D93A8
:1009D000FD931482158212821382DF91CF911F91B1
:1009E0000F91FF90EF90DF90CF900895E9018A81F9
:1009F0009B818901009709F4B8CF9C01AACF549636
:100A0000ED93FD935697C0CFC416D506E606F706BC
:100A100020F7D1CFCF93DF93DC01ED91FD911297B9
:100A20000190F081E02D12960D90BC91A02D2489AB
:100A300035892817390711F4A48BB58B2689378996
:100A40002817390719F4A68BB78B9D01109739F039
:100A5000EC014C815D8114964D935D931697EC01EA
:100A60008C819D81009719F0EC01AA83BB83232B15
:100A700021F484899589868B978BDF91CF91089596
:100A8000EF92FF920F931F93CF93DF93EC0180912E
:100A9000F903811509F4A7C08C859D85AE85BF85B6
:100AA0000196A11DB11D8C879D87AE87BF874881A8
:100AB00059816A817B8184179507A607B70709F0DA
:100AC00092C088899989AA89BB890196A11DB11D07
:100AD0004C815D816E817F81481759076A077B07CA
:100AE00018F4A0E0B0E0CD01888B998BAA8BBB8B6A
:100AF0001C861D861E861F860E891F8901151105FD
:100B000009F471C0F80142855385648575854817DD
:100B100059076A077B0709F066C09F010280F381CD
:100B2000E02D309749F0428553856485758584179B
:100B30009507A607B70789F3D80114968D919D9163
:100B4000009721F0DC011296ED93FD93309711F0A0
:100B5000848395838C899D890817190711F4EC8B80
:100B6000FD8B309711F4EC89FD89EE8BFF8BF90139
:100B7000128213827801D80112960D911D9114975B
:100B8000ED91FD910280F381E02DC7010995F701F8
:100B900086819781A085B18510979040804051F162
:100BA0004285538564857585840F951FA61FB71FE1
:100BB0004C815D816E817F81481759076A077B07E9
:100BC00038F4841B950BA60BB70B0197A109B1094B
:100BD000F70182879387A487B587C7010E948D0498
:100BE0000115110539F6DF91CF911F910F91FF90FB
:100BF000EF900895D7011E961C92F2CFFC018281DE
:100C00000C9467030E9423068091680108958093E5
:100C100068010E94F5030E9489040C94F0030C946F
:100C20000510CF93DF930F92CDB7DEB789830E9473
:100C30009802811102C00E94521089810F90DF91A9
:100C4000CF910C946400209106042130D1F04091A2
:100C5000FE035091FF0360910004709101048091A4
:100C6000020490910304A0910404B0910504842B24
:100C7000952BA62BB72B21E0892B8A2B8B2B09F4E4
:100C800020E0822F08951092060410920204109220
:100C9000030410920404109205041092FE031092B3
:100CA000FF0310920004109201048091FA039091C6
:100CB000FB03A091FC03B091FD0380930704909384
:100CC0000804A0930904B0930A0408950E945510E3
:100CD0008091070490910804A0910904B0910A043E
:100CE0000196A11DB11D8093070490930804A09361
:100CF0000904B0930A048091020490910304A09126
:100D00000404B09105040196A11DB11D8093020455
:100D100090930304A0930404B09305040895809174
:100D2000020490910304A0910404B091050410976B
:100D30009040804069F1409107045091080460910F
:100D4000090470910A0441505109610971094093E5
:100D50000704509308046093090470930A040197F0
:100D6000A109B1098093020490930304A0930404A1
:100D7000B09305048091070490910804A0910904A0
:100D8000B0910A04892B8A2B8B2B11F40C945310ED
:100D900008958091020490910304A0910404B091FD
:100DA00005044091FE035091FF036091000470918F
:100DB0000104842B952BA62BB72B892B8A2B8B2BED
:100DC00029F40E94551081E08093060408958091D3
:100DD0000604811521F0109206040C945310089516
:100DE0000E9459108091070490910804A091090471
:100DF000B0910A040196A11DB11D80930704909340
:100E00000804A0930904B0930A048091FE03909112
:100E1000FF03A0910004B09101040196A11DB11D32
:100E20008093FE039093FF03A0930004B09301040A
:100E300008958091FE039091FF03A0910004B0916A
:100E4000010410979040804069F14091070450914F
:100E500008046091090470910A0441505109610924
:100E60007109409307045093080460930904709338
:100E70000A040197A109B1098093FE039093FF032F
:100E8000A0930004B093010480910704909108049A
:100E9000A0910904B0910A04892B8A2B8B2B11F4A1
:100EA0000C94571008950E942306811183E1089540
:100EB000CF93DF930F92CDB7DEB789830E942306CD
:100EC00089810E946703898380917E0181110E943C
:100ED000D60389810F90DF91CF910895CF930E941F
:100EE0002306C82F8111C3E1E0917101F0917201D5
:100EF0008281815082830E945A0381E080937D0128
:100F00000E9498038C2FCF910895CF93DF930F9277
:100F1000CDB7DEB789830E942306E0917101F0917D
:100F2000720182818150828389810E946703898353
:100F300081110CC00E945A0381E080937D010E94C0
:100F4000980389810F90DF91CF910895E09171010D
:100F5000F091720182818F5F8283F3CFCF930E94E1
:100F60002306C82F8111C3E1809175010E94DF0221
:100F70000E94D6038091750190917601A09177012E
:100F8000B09178014091790150917A0160917B0193
:100F900070917C0184179507A607B70711F40E948A
:100FA000B4028C2FCF910895CF93DF9300D0CDB7AB
:100FB000DEB789839A830E942306811183E14091E1
:100FC00075015091760160917701709178014330FD
:100FD00051056105710514F04091DC01E981FA8148
:100FE00040830F900F90DF91CF910895CF93DF93BF
:100FF00000D00F92CDB7DEB789836A837B830E94CE
:101000002306811183E19981E92FEE0FFF0BEC5943
:10101000FC4F0190F081E02D94819370EA81FB8177
:1010200090830F900F900F90DF91CF910895E82F4C
:10103000EE0FFF0BEC59FC4FA081B181ED91FD91BA
:101040001297309771F01D921D928091DC01DF01A3
:101050000380F481E02D12968D931D921D9230979E
:10106000B1F70895CF93DF930F92CDB7DEB78983A1
:101070000E942306811183E19981E92FF0E0EE0FB0
:10108000FF1FE455FC4F0190F081E02D9091750118
:101090009283A0917101B09172012D913D912383B2
:1010A0003483FE93EE9313962C91139721839081B2
:1010B0002695291760F4E92FF0E0EC54FA4F2081CF
:1010C00021502083990F2170922B13969C930F909F
:1010D000DF91CF910895CF93DF9300D0CDB7DEB7E6
:1010E00089830E9423068A83811511F083E18A8314
:1010F0008981E82FF0E0EE0FFF1FE455FC4F0190CF
:10110000F081E02DA0917101B0917201818113965F
:101110008C931397838194818D939D931382148272
:101120008091DC0182830E94D6038A810F900F9008
:10113000DF91CF910895DC01ED91FD91848195813E
:10114000DC01ED91FD910994CF93DF9300D00F92D4
:10115000CDB7DEB789836A837B830E942306811122
:1011600083E19981E92FF0E0EE0FFF1FED5BFC4F6B
:101170000190F081E02D0190F081E02D0190F0814F
:10118000E02D4081518162817381AA81BB811496D7
:101190004D935D936D937D9318974481558166813E
:1011A00077814D935D936D937D9314974085518521
:1011B00062857385FD0140875187628773870F9031
:1011C0000F900F90DF91CF910895CF92DF92EF9221
:1011D000FF920F931F93CF93DF9300D0CDB7DEB76D
:1011E000182F69837A830E942306811183E1E12FFE
:1011F000F0E0EE0FFF1FED5BFC4F0190F081E02D62
:101200009685913081F54285538564857585019079
:10121000F081E02D0190F081E02D00891189228973
:101220003389401751076207730740F4C480D580A3
:10123000E680F7804C0D5D1D6E1D7F1D401B510B20
:10124000620B730BE981FA8140835183628373835C
:101250000F900F90DF91CF911F910F91FF90EF9022
:10126000DF90CF90089585E0F3CFAF92BF92CF92F9
:10127000DF92EF92FF920F931F93CF93DF9300D0F3
:1012800000D000D0CDB7DEB789834A835B836C83FF
:101290007D83780189010E9423068E83811511F0D8
:1012A00083E18E83A980EA2DF0E0EE0FFF1FED5B56
:1012B000FC4F0190F081E02D8685811145C0A08111
:1012C000B1810D90BC91A02D50964D915D916D9185
:1012D0007D915497AA80BB80CC80DD804A0D5B1D38
:1012E0006C1D7D1D14968D919D910D90BC91A02D2E
:1012F00084179507A607B70740F4481B590B6A0BDC
:101300007B0B4150510961097109428753876487FA
:101310007587E682F7820087118781E08687CF0193
:101320000E948D048E810F900F900F900F900F9060
:101330000F90DF91CF911F910F91FF90EF90DF9071
:10134000CF90BF90AF90089587E08E83EBCFEF9260
:10135000FF920F931F93CF93DF9300D000D000D064
:10136000CDB7DEB789834A835B836C837D83780145
:1013700089010E9423068E83811511F083E18E83FB
:101380009981E92FF0E0EE0FFF1FED5BFC4F01901C
:10139000F081E02D868581111FC08A819B81AC81FF
:1013A000BD8182879387A487B587E682F78200870D
:1013B000118781E08687CF010E948D048E810F9076
:1013C0000F900F900F900F900F90DF91CF911F9182
:1013D0000F91FF90EF90089597E09E83EFCF0F93CA
:1013E0001F93CF93182F0E942306C82F8111C3E1AA
:1013F000E12FF0E0EE0FFF1FED5BFC4F008111814C
:10140000F8018685813051F4C8010E940A05F8016F
:1014100016868C2FCF911F910F910895C5E0F9CFBB
:1014200026E040E052EC61E070E08AE298E00E9441
:1014300033140E94C00E6DED71E08AE298E00C94C6
:101440001A11EF92FF920F931F93CF93DF93CDB7B3
:10145000DEB768970FB6F894DEBF0FBECDBF2DEC98
:101460003CEC4CE45EE360911304709114048091B1
:101470001504909116040E94BA1469837A838B83B1
:101480009C836093130470931404809315049093C9
:1014900016042AE939E949E95EE30E94EF160E9441
:1014A0005C1720E030E040E252E40E94EF1620E0BA
:1014B00030E048E452E40E94BA147B018C0160934E
:1014C0001704F09218048093190410931A0423E36C
:1014D00033E343E75FE360911F0470912004809140
:1014E0002104909122040E94EF166D837E838F83E6
:1014F00098879701A801B701C8010E94BA142DEC82
:101500003CEC4CE45DE30E94EF169B01AC016D8165
:101510007E818F8198850E94BA146D837E838F832C
:10152000988760931F047093200480932104909304
:10153000220429813A814B815C81B901CA010E9450
:10154000BA140E945C1769877A878B879C8720E092
:1015500030E040EF51E46D817E818F8198850E945B
:10156000EF1620E030E048E454E40E94BA146D879E
:101570007E878F87988B20E030E04AEF53E46985BF
:101580007A858B859C850E94EF169B01AC016D8549
:101590007E858F8598890E94BA1460931B0470938E
:1015A0001C0480931D0490931E042DEC3CEC4CEC29
:1015B0005DE369817A818B819C810E94EF160E9494
:1015C0005C1720E030E040E751E40E94EF1620E095
:1015D00030E04AEA52E40E94BA146D877E878F8712
:1015E000988B20E030E040EF52E469817A818B8172
:1015F0009C810E94141620E030E040EF52E40E94EB
:101600002B1520E030E044EB52E40E94EF169B01E2
:10161000AC0160E070E088EC92E40E94B914698B40
:101620007A8B8B8B9C8B20E030E040EC5FE3B70142
:10163000C8010E94EF1620E030E040EA51E40E9429
:10164000B9146D8B7E8B8F8B988F20E030E040EF4C
:1016500051E469817A818B819C810E942B1520E065
:1016600030E040E85FE30E94141669837A838B833D
:101670009C8320E030E04CE053E40E94EF16698741
:101680007A878B879C8720E030E040E05FE36981C8
:101690007A818B819C810E94261587FFC2C020E041
:1016A00030E040EF51E469857A858B859C850E9406
:1016B000BA148B019C016093690110936A018093B5
:1016C0006B0130936C014D815E816F8178858CE078
:1016D00092E00E94E20E40911B0450911C04609124
:1016E0001D0470911E0482E192E00E94E20E4D857D
:1016F0005E856F85788986E192E00E94E20E4989D5
:101700005A896B897C8982E292E00E94E20E4091C4
:10171000690150916A0160916B0170916C018CE2DA
:1017200092E00E94E20E4D895E896F89788D84E394
:1017300092E00E94E20E20E030E040E950E4609147
:10174000690170916A0180916B0190916C010E9416
:10175000EF16AB01BC0120E08AE392E00E94C30EC9
:1017600068E070E082E492E00E94E50E4091170488
:10177000509118046091190470911A0487E492E062
:101780000E94E20E20911704309118044091190430
:1017900050911A0460E070E088E492E40E94B91469
:1017A0008B018D83998340E050E09A010E942615B9
:1017B00087FF04C000E010E01D821982A8016D813E
:1017C000798180E592E00E94E20E2AE939E949E157
:1017D0005EE360911304709114048091150490915C
:1017E00016040E94EF160E945C1720E030E040EFE4
:1017F00051E40E94EF16AB01BC018BE592E00E9420
:10180000E20E0E941E0F68960FB6F894DEBF0FBE60
:10181000CDBFDF91CF911F910F91FF90EF900C946E
:101820008C0029853A854B855C8560E070E08AE212
:1018300093E40E94B9143DCFCF93DF93CDB7DEB7C9
:1018400029970FB6F894DEBF0FBECDBF2DEC3CEC50
:101850004CE45EE360910F047091100480911104D8
:10186000909112040E94BA1469837A838B839C83BB
:1018700060930F04709310048093110490931204EA
:1018800020E030E040EC51E40E9414166D837E832A
:101890008F83988720E030E040E451E40E94E01616
:1018A00087FD55C120E030E040E951E46D817E8143
:1018B0008F8198850E94261587FB882780F9898764
:1018C00020E030E040E450E469817A818B819C81A2
:1018D0000E94EF169B01AC010E94BA142BED3FE071
:1018E00049E450E40E94EF160E945C1769837A83F2
:1018F0008B839C8320E030E040EC50E46D817E815E
:101900008F8198850E94261587FF0DC081E08D8309
:1019100040E050E09A0169817A818B819C810E942C
:10192000E01618160CF01D826D8189E692E00E9487
:10193000020F9985911571F0A1E0A98740E050E070
:101940009A0169817A818B819C810E94E016181628
:101950000CF01986698582E792E00E94020F60917F
:101960000F0470911004809111049091120420E0F2
:1019700030E040E252E40E94141620E030E040EAF9
:1019800050E40E94261587FB662760F98CE792E0F9
:101990000E94020F20E030E04CE052E460916901C7
:1019A00070916A0180916B0190916C010E942615E3
:1019B00087FB662760F988E892E00E94020F60E0EA
:1019C00084E992E00E94020FB1E0B98320E030E0A8
:1019D00046E153E460911F0470912004809121043A
:1019E000909122040E94E01618160CF01982698169
:1019F0008EE992E00E94020F60910F047091100432
:101A0000809111049091120420E030E048E452E407
:101A10000E94141620E030E040E450E40E942615B5
:101A200087FB662760F986EA92E00E94020F60E079
:101A300082EB92E00E94020F61E08DEB92E00E9447
:101A4000020F61E08BEC92E00E94020F81E089833B
:101A500020E030E048EC52E460911F0470912004D3
:101A600080912104909122040E94E01618160CF037
:101A70001982698183ED92E00E94020F60E08CED93
:101A800092E00E94020F60910F0470911004809107
:101A900011049091120420E030E040EF51E40E94E4
:101AA000141620E030E040E251E40E94261587FB46
:101AB000662760F986EE92E00E94020F80911F0473
:101AC00090912004A0912104B091220489839A83EB
:101AD000AB83BC8320E030E040EA52E4BC01CD019E
:101AE0000E94E01660E018166CF420E030E042E05E
:101AF00053E469817A818B819C810E94261587FB42
:101B0000662760F988EF92E00E94020F20E030E83B
:101B10004BE355E460911B0470911C0480911D04FB
:101B200090911E040E94261587FB662760F985E0C8
:101B300093E00E94020F0E941E0F29960FB6F894A0
:101B4000DEBF0FBECDBFDF91CF910C948C00198604
:101B5000B7CECF93DF93CDB7DEB728970FB6F89403
:101B6000DEBF0FBECDBF20E030E040E05FE360911C
:101B70000B0470910C0480910D0490910E040E944E
:101B8000BA146D837E838F83988760930B04709360
:101B90000C0480930D0490930E0480911F04909187
:101BA0002004A0912104B091220489839A83AB83FD
:101BB000BC8320E030E040E050E4BC01CD010E9455
:101BC000261560E087FF13C020E030E040EA51E4D2
:101BD0006D817E818F8198850E94141620E030E00F
:101BE00040EA50E40E94261587FB662760F98DE0E5
:101BF00093E00E94020F20E030E040E050E4698171
:101C00007A818B819C810E94261560E087FF17C036
:101C100060910B0470910C0480910D0490910E045E
:101C200020E030E048EC51E40E94141620E030E05F
:101C300040E450E40E94261587FB662760F984E1A2
:101C400093E00E94020F60E08BE193E00E94020F9C
:101C500060E082E293E00E94020F20E030E040E08A
:101C600050E469817A818B819C810E94261560E015
:101C700087FF17C060910B0470910C0480910D04D4
:101C800090910E0420E030E040E252E40E941416ED
:101C900020E030E040E850E40E94261587FB6627EC
:101CA00060F989E293E00E94020F20E030E040E01A
:101CB00050E469817A818B819C810E94261560E0C5
:101CC00087FF17C060910B0470910C0480910D0484
:101CD00090910E0420E030E040EF51E40E94141691
:101CE00020E030E040E450E40E94261587FB6627A0
:101CF00060F98EE293E00E94020F0E941E0F289668
:101D00000FB6F894DEBF0FBECDBFDF91CF910C941C
:101D10008C00CF92DF92EF92FF920F931F93CF939D
:101D20006B01C0912304C03118F529E1C29F8001E5
:101D30001124F801EC5DFB4F7F0141E150E0BC0153
:101D4000CF010E94AA14F701118AF60182899389B2
:101D5000F701828B938BD801A85CBB4F85E0F6011D
:101D6000749601900D928A95E1F7CF5FC09323049A
:101D7000CF911F910F91FF90EF90DF90CF9008953A
:101D8000109223040895CF93DF93CDB7DEB7699700
:101D90000FB6F894DEBF0FBECDBF1B8A1C8A4D8BD9
:101DA0005E8B6F8B788F298FBE016F5F7F4F0E9494
:101DB000890E69960FB6F894DEBF0FBECDBFDF91D6
:101DC000CF91089521E00C94C30ECF93DF93CDB74C
:101DD000DEB769970FB6F894DEBF0FBECDBF21E026
:101DE0002B8B1C8A6D8B7E8BBE016F5F7F4F0E9499
:101DF000890E69960FB6F894DEBF0FBECDBFDF9196
:101E0000CF910895CF93DF93CDB7DEB769970FB623
:101E1000F894DEBF0FBECDBF22E02B8B1C8A6D8BEA
:101E2000BE016F5F7F4F0E94890E69960FB6F894CE
:101E3000DEBF0FBECDBFDF91CF9108951F93CF932B
:101E4000DF9380912304811581F064E28AE298E0B7
:101E50000E940F1110E080912304181750F08AE2BD
:101E600098E00E94161110922304DF91CF911F91E8
:101E70000895111529F06CE28AE298E00E940F1192
:101E800089E1189FE0011124CC5DDB4FBE018AE29D
:101E900098E00E940D116AE38AE298E00E940F1117
:101EA0008A899B898130910589F082309105B9F04A
:101EB000892B51F4288D30E04C895D896E897F89AA
:101EC0008AE298E00E94F1121F5FC5CF6C897D897C
:101ED0004AE050E08AE298E00E94EC11F5CF6C896C
:101EE00070E0F6CF8BEB91E00C94FD0008951F920B
:101EF0000F920FB60F9211242F933F934F935F933E
:101F00006F937F938F939F93AF93BF93EF93FF93C1
:101F10008091210890912208A0912308B091240873
:101F20003091200823E0230F2D3798F50196A11D4D
:101F3000B11D209320088093210890932208A0933C
:101F40002308B09324088091250890912608A09139
:101F50002708B09128080196A11DB11D809325087E
:101F600090932608A0932708B09328080E94720F28
:101F7000FF91EF91BF91AF919F918F917F916F9161
:101F80005F914F913F912F910F900FBE0F901F9037
:101F9000189526E8230F0296A11DB11DCACF84B55E
:101FA000826084BD84B5816084BD85B5826085BD55
:101FB00085B5816085BDEEE6F0E08081816080833B
:101FC000E1E81082808182608083808181608083EB
:101FD000E0E8808181608083E1EB808184608083A0
:101FE000E0EB808181608083EAE780818460808388
:101FF000808182608083808181608083808180682D
:1020000080831092C1000895FFCFFFCFCF93DF935D
:10201000E82FEE0FFF0BE459FC4FA081B18114961D
:102020008D919D9101971497ED91FD91E80FF91F06
:1020300019968C911D97823079F584E890E0892F6C
:1020400024E830E020839F0121503109E901888391
:1020500016963D912C911797CF010297EC0138838A
:102060000197EC012883069726E0EC0119922A9546
:10207000E9F7019720E8EC0128830C972CE0EC01AC
:1020800019922A95E9F70D90BC91A02D7797ED93C1
:10209000FD93DF91CF91089580EA90E0892F20EAA7
:1020A00030E0D0CF089578940895F8940895789406
:1020B0000895F894089508950E94CF0F0E945B1030
:1020C0000E94760F0E94100A809129080E94110632
:1020D00080E090E008958091B403809329080895EA
:1020E00008951F920F920FB60F9211242F933F93D2
:1020F0004F935F936F937F938F939F93AF93BF9310
:10210000EF93FF93E091D801F091D9010995FF91E8
:10211000EF91BF91AF919F918F917F916F915F915F
:102120004F913F912F910F900FBE0F901F901895D8
:102130001F920F920FB60F9211242F933F934F933C
:102140005F936F937F938F939F93AF93BF93EF931F
:10215000FF93E091DA01F091DB010995FF91EF9196
:10216000BF91AF919F918F917F916F915F914F91AF
:102170003F912F910F900FBE0F901F9018950F93C6
:102180001F93CF93DF9300D000D000D0CDB7DEB740
:1021900089839A834B835C836D837E8300E010E0A8
:1021A000AB81BC810A171B0761F4C8010F900F9027
:1021B0000F900F900F900F90DF91CF911F910F9183
:1021C0000895A981BA81ED91FD910190F081E02DF2
:1021D000AD81BE816C9189819A810995892B29F302
:1021E0008D819E8101968D839E830F5F1F4FD8CF77
:1021F0006115710579F0FB0101900020E9F7319735
:10220000AF01461B570BDC01ED91FD910280F3817C
:10221000E02D099480E090E008950C94F810DC0122
:10222000ED91FD910190F081E02D099464E373E05C
:102230000C94F810CF93DF9300D000D0CDB7DEB769
:1022400089839A830E94F8108B839C8389819A8169
:102250000E9416112B813C81820F931F0F900F90CB
:102260000F900F90DF91CF9108958F929F92AF9230
:10227000BF92CF92DF92EF92FF920F931F93CF9373
:10228000DF93CDB7DEB7A3970FB6F894DEBF0FBECE
:10229000CDBF8AA39BA3B42EA52E962E872E19A25E
:1022A000223008F42AE08E010F5D1F4FC22ED12C80
:1022B000E12CF12C6B2D7A2D892D982D9601A701FB
:1022C0000E94E3178B2D9A2DA92DB82DB22EA32E87
:1022D000942E852E6A300CF5605DF80162938F01B3
:1022E0008C159D05AE05BF0528F7BF018AA19BA1EE
:1022F0000E94F810A3960FB6F894DEBF0FBECDBFB4
:10230000DF91CF911F910F91FF90EF90DF90CF90D1
:10231000BF90AF909F908F900895695CDECFCF9271
:10232000DF92EF92FF92CF93DF9300D000D0CDB732
:10233000DEB78B839C836A017B0121153105A1F4F3
:10234000DC01ED91FD9112970190F081E02D642F59
:10235000CD010F900F900F900F90DF91CF91FF90D4
:10236000EF90DF90CF9009942A30310519F4F7FCF3
:1023700011C02AE0A601B7018B819C810F900F90BC
:102380000F900F90DF91CF91FF90EF90DF90CF9063
:102390000C9435116DE28B819C810E940F11898311
:1023A0009A8344275527BA014C195D096E097F09A4
:1023B0002AE08B819C810E94351129813A81820F0C
:1023C000931F0F900F900F900F90DF91CF91FF9080
:1023D000EF90DF90CF9008959A01AB01770F770BC4
:1023E000672F0C948F112115310541F4DC01ED911B
:1023F000FD910190F081E02D642F09940C9435112A
:102400009A01AB0160E070E00C94F311AF92BF92BF
:10241000CF92DF92EF92FF920F931F93CF93DF93B0
:1024200000D000D000D0CDB7DEB78C016A017B01AF
:10243000B22E9A01AB01B601C7010E94641767E38F
:1024400073E0811114C0B601C7010E94E5166BE369
:1024500073E0892B61F42FEF3FEF4FE75FE4B601A4
:10246000C7010E94E0161816ACF46FE373E0C801D0
:102470000F900F900F900F900F900F90DF91CF91D2
:102480001F910F91FF90EF90DF90CF90BF90AF9092
:102490000C94F8102FEF3FEF4FE75FECB601C70148
:1024A0000E94261587FDE1CF40E050E09A01B60179
:1024B000C7010E94261587FF5AC06DE2C8010E941D
:1024C0000F118D839E83F7FAF094F7F8F094A12C06
:1024D00060E070E080E09FE3BA104CC09601A70175
:1024E0000E94BA1469837A838B839C830E949D1512
:1024F0006B017C012AE0AB01BC01C8010E943511CF
:102500002D813E81280F391F2D833E83B114E1F0C8
:10251000B601C7010E94CC159B01AC0169817A818B
:102520008B819C810E94B914F62EE72ED82EC92EDD
:102530006EE2C8010E940F112D813E81280F391FC4
:102540002D833E83B1101EC08D819E810F900F9010
:102550000F900F900F900F90DF91CF911F910F91DF
:10256000FF90EF90DF90CF90BF90AF9008951D82C5
:102570001E82ADCF20E030E040E251E40E942B15F6
:10258000A394AACFBA9420E030E040E251E46F2D4A
:102590007E2D8D2D9C2D0E94EF1669837A838B836F
:1025A0009C830E949D156B014AE050E0C8010E9487
:1025B00000122D813E81280F391F2D833E83B601E5
:1025C00080E090E00E94CC159B01AC0169817A818A
:1025D0008B819C810E94B914F62EE72ED82EC92E2D
:1025E000B1CF0C9406122F932FB72F938F939F93F5
:1025F000EF93FF93E0913A08F0913B088081E091DE
:102600004008F091410882FD19C0908180914308F3
:102610008F5F8F7320914408821741F0E091430847
:10262000F0E0E65DF74F958F80934308FF91EF91BF
:102630009F918F912F912FBF2F9118958081F6CF69
:102640001F920F920FB60F9211242F933F934F9327
:102650005F936F937F938F939F93AF93BF93EF930A
:10266000FF938AE298E00E94A613FF91EF91BF9139
:10267000AF919F918F917F916F915F914F913F911A
:102680002F910F900FBE0F901F901895EAE2F8E07F
:102690001282138288EE93E08483958316821782D8
:1026A00089EE93E08083918385EC8487158684ECA2
:1026B0008687178680EC808B118A81EC828B138A47
:1026C00082EC848B158A86EC868B178A118E128E8B
:1026D000138E148E0895FC01918D228D892F90E028
:1026E000805C9F4F821B91098F7390E00895FC01DD
:1026F000918D828D981731F0828DE80FF11D858DB7
:1027000090E008958FEF9FEF0895FC01918D828DE9
:10271000981761F0A28DAE0FBF2FB11D5D968C9101
:10272000928D9F5F9F73928F90E008958FEF9FEF40
:102730000895FC01238D348D832F90E0821B910935
:10274000231710F0CF96089501970895FC01A48DEA
:10275000A80FB92FB11DA35ABF4F2C91848D01969C
:102760008F73848FA689B7892C93A089B1898C91A6
:10277000837080648C93938D848D981306C0028837
:10278000F389E02D80818F7D80830895CF93DF933F
:10279000EC01888D811111C0DF91CF9108950FB6A2
:1027A00007FC0DC0808185FF0AC0A889B9898C917A
:1027B00085FF05C0CE010E94A613EA89FB898081AE
:1027C00085FDEDCFA889B9898C9186FFE8CFE4CF4C
:1027D000EF92FF920F931F93CF93DF93EC01F62EAE
:1027E00081E0888F9B8D8C8D98131AC0E889F989B8
:1027F000808185FF15C09FB7F894EE89FF896083BB
:10280000E889F98980818370806480839FBF81E03B
:1028100090E0DF91CF911F910F91FF90EF9008957D
:102820000B8D0F5F1F4F0F73E02E8C8D8E1579F07F
:10283000EB8DEC0FFD2FF11DE35AFF4FF0829FB798
:10284000F8940B8FEA89FB8980818062DECF0FB616
:1028500007FCEBCFE889F989808185FFE6CFCE01BF
:102860000E94A613E2CFCF92DF92EF92FF92CF9316
:10287000DF9300D00F92CDB7DEB78A839B836A01C6
:102880007B012983DC015096ED91FD9182E08083EC
:10289000C114B1EEDB06E104F10491F060E079E0EF
:1028A0008DE390E09A01A7010E94E31721503109BE
:1028B0004109510956954795379527953031B0F024
:1028C000AA81BB815096ED91FD91108260E874E879
:1028D0008EE190E09601A7010E94E3172150310993
:1028E000410951095695479537952795AA81BB818E
:1028F0001C96ED91FD913083ED91FD91208318960A
:102900001C921497ED91FD91B981B083AA81BB818E
:102910005296ED91FD91808180618083FE91EE91D0
:10292000808188608083ED91FD91808180688083C3
:10293000FE91EE9180818F7D80830F900F900F909C
:10294000DF91CF91FF90EF90DF90CF900895F894B2
:102950000C940B18FB01DC014150504048F00190F1
:102960000D920020C9F701C01D9241505040E0F780
:1029700008955058BB27AA270E94D1140C94A6167C
:102980000E94981638F00E949F1620F039F49F3F5D
:1029900019F426F40C9495160EF4E095E7FB0C94CC
:1029A0008116E92F0E94B71658F3BA17620773070A
:1029B0008407950720F079F4A6F50C94D9160EF447
:1029C000E0950B2EBA2FA02D0B01B90190010C013F
:1029D000CA01A0011124FF27591B99F0593F50F457
:1029E000503E68F11A16F040A22F232F342F4427AF
:1029F000585FF3CF469537952795A795F0405395A7
:102A0000C9F77EF41F16BA0B620B730B840BBAF076
:102A10009150A1F0FF0FBB1F661F771F881FC2F7E1
:102A20000EC0BA0F621F731F841F48F487957795F5
:102A30006795B795F7959E3F08F0B0CF9395880FAF
:102A400008F09927EE0F9795879508950E945D16D7
:102A500008F481E008950E943F150C94A6160E9488
:102A60009F1658F00E94981640F029F45F3F29F015
:102A70000C94811651110C94DA160C9495160E9440
:102A8000B71668F39923B1F3552391F3951B550BB2
:102A9000BB27AA2762177307840738F09F5F5F4F31
:102AA000220F331F441FAA1FA9F335D00E2E3AF070
:102AB000E0E832D091505040E695001CCAF72BD088
:102AC000FE2F29D0660F771F881FBB1F26173707D9
:102AD0004807AB07B0E809F0BB0B802DBF01FF270B
:102AE00093585F4F3AF09E3F510578F00C94811651
:102AF0000C94DA165F3FE4F3983ED4F3869577950D
:102B00006795B795F7959F5FC9F7880F911D9695C3
:102B1000879597F90895E1E0660F771F881FBB1F1F
:102B2000621773078407BA0720F0621B730B840BCC
:102B3000BA0BEE1F88F7E09508950E94BF1688F043
:102B40009F5798F0B92F9927B751B0F0E1F0660F71
:102B5000771F881F991F1AF0BA95C9F714C0B130B2
:102B600091F00E94D916B1E008950C94D916672F00
:102B7000782F8827B85F39F0B93FCCF386957795E1
:102B80006795B395D9F73EF49095809570956195CA
:102B90007F4F8F4F9F4F0895E89409C097FB3EF4F5
:102BA00090958095709561957F4F8F4F9F4F99239A
:102BB000A9F0F92F96E9BB279395F6958795779518
:102BC0006795B795F111F8CFFAF4BB0F11F460FFD8
:102BD0001BC06F5F7F4F8F4F9F4F16C0882311F030
:102BE00096E911C0772321F09EE8872F762F05C044
:102BF000662371F096E8862F70E060E02AF09A95DF
:102C0000660F771F881FDAF7880F9695879597F9D3
:102C100008950E94981620F019F00E949F1650F413
:102C20000C9495160C94DA16E92F0E94B71688F3C7
:102C30005523B1F3E7FB6217730784079507A8F1E3
:102C400089F3E92FFF2788232AF03197660F771F32
:102C5000881FDAF7952F5527442332F091505040C2
:102C6000220F331F441FD2F7BB27E91BF50B621B52
:102C7000730B840BB109B1F222F4620F731F841F2E
:102C8000B11D31972AF0660F771F881FBB1FEFCF4A
:102C90009150504062F041F0882332F0660F771F68
:102CA000881F91505040C1F793950C9487168695D4
:102CB000779567959F5FD9F7F7CF990F0008550F64
:102CC000AA0BE0E8FEEF16161706E807F907C0F0B2
:102CD00012161306E407F50798F0621B730B840BBA
:102CE000950B39F40A2661F0232B242B252B21F494
:102CF00008950A2609F4A140A6958FEF811D811D34
:102D0000089597F99F6780E870E060E008959F3F1D
:102D100031F0915020F4879577956795B795880F96
:102D2000911D9695879597F908959FEF80EC0895EA
:102D300000240A941616170618060906089500249A
:102D40000A9412161306140605060895092E039414
:102D5000000C11F4882352F0BB0F40F4BF2B11F488
:102D600060FF04C06F5F7F4F8F4F9F4F089557FDE7
:102D70009058440F551F59F05F3F71F04795880FE9
:102D800097FB991F61F09F3F79F087950895121680
:102D900013061406551FF2CF4695F1DF08C016162C
:102DA00017061806991FF1CF8695710561050894DD
:102DB0000895E894BB2766277727CB0197F90895F4
:102DC0000E945D1608F48FEF08950E94BF1680E000
:102DD00090E020F419F40EF40297839508950E9470
:102DE00002170C94A6160E94981638F00E949F169F
:102DF00020F0952311F00C9481160C949516112453
:102E00000C94DA160E94B71670F3959FC1F3950FD4
:102E100050E0551F629FF001729FBB27F00DB11D5E
:102E2000639FAA27F00DB11DAA1F649F6627B00DEE
:102E3000A11D661F829F2227B00DA11D621F739FD7
:102E4000B00DA11D621F839FA00D611D221F749FE5
:102E50003327A00D611D231F849F600D211D822F2C
:102E6000762F6A2F11249F5750409AF0F1F0882353
:102E70004AF0EE0FFF1FBB1F661F771F881F915080
:102E80005040A9F79E3F510580F00C9481160C9498
:102E9000DA165F3FE4F3983ED4F38695779567950D
:102EA000B795F795E7959F5FC1F7FE2B880F911DAA
:102EB0009695879597F908959F930E946B170F90A9
:102EC00007FCEE5F0C9494170E945D16880B990B1B
:102ED00008950C9495160E94BF16D8F3E894E0E08C
:102EE000BB279F57F0F02AED3FE049EC06C0EE0FFC
:102EF000BB0F661F771F881F28F0B23A620773075F
:102F0000840728F0B25A620B730B840BE3959A95F1
:102F100072F7803830F49A95BB0F661F771F881FB1
:102F2000D2F790480C948916EF93E0FF07C0A2EA0D
:102F30002AED3FE049EC5FEB0E94D1140E94A616F7
:102F40000F90039401FC9058EAE1F0E30C94A81769
:102F50009F938F937F936F93FF93EF939B01AC01AC
:102F60000E94EF16EF91FF910E94BC172F913F91A5
:102F70004F915F910C94EF16DF93CF931F930F93B4
:102F8000FF92EF92DF927B018C01689406C0DA2EEB
:102F9000EF010E940217FE01E894A5912591359159
:102FA00045915591A6F3EF010E94D114FE019701BE
:102FB000A801DA9469F7DF90EF90FF900F911F91CD
:102FC000CF91DF910895A1E21A2EAA1BBB1BFD0130
:102FD0000DC0AA1FBB1FEE1FFF1FA217B307E407F8
:102FE000F50720F0A21BB30BE40BF50B661F771F50
:102FF000881F991F1A9469F7609570958095909530
:103000009B01AC01BD01CF010895EE0FFF1F05909C
:10301000F491E02D0994F894FFCF05A84CCDB2D4DB
:103020004EB93836A9020C50B9918688083CA6AA38
:08303000AA2ABE000000803F47
:103038000000000000000000000000000000000088
:103048000000000000000000000000000000000078
:103058000000000000000000000000000000000068
:103068000000000000000000000000000000000058
:103078000000000000000000000000000000000048
:103088000000000000000000000000000000000038
:103098000000000000000000FF00008E4200009EBB
:1030A800030000C907FFFFFFFFFFFFFFFF00004904
:1030B8000300000000C8000000C80000000252031E
:1030C80000000000C8000000C8000000025B030008
:1030D800000000F4010000F40100000200000003F9
:1030E800000000000200000000010001000000FFD5
:1030F800FF000001000000000000000000000000C8
:103108000000000400FF000070107010FF5B4461B5
:103118007368626F6172642046756C6C5D204D75D2
:103128006C74692D7461736B2076656869636C656E
:103138002073696D756C6174696F6E007370656575
:10314800640072706D00636F6F6C616E7454656DAE
:1031580070006675656C4C6576656C0062617474A8
:1031680065727900706F7765720072616E67654B82
:103178006D0067656172007468726F74746C6500C5
:103188006272616B65466F72636500737465657220
:10319800696E67416E676C65007475726E4C656622
:1031A80074007475726E5269676874006368656349
:1031B8006B456E67696E65006261747465727957F4
:1031C80061726E006272616B655761726E00616256
:1031D800735761726E006F696C50726573737572A4
:1031E80065006169726261675761726E0070617231
:1031F8006B696E674C6967687473006C6F774265BA
:10320800616D00686967684265616D00666F674C4B
:103218006967687473007365617462656C74556E70
:103228006275636B6C65640063727569736541638D
:10323800746976650065636F4D6F646500646F6FD0
:1032480072464C00646F6F72465200646F6F725220
:103258004C00646F6F72525200686F6F6400747232
:10326800756E6B000D0A006E616E00696E66006F08
:103278007666009D018E017F01BB019B084F03FE0E
:103288000501BB019B085803FE0502BB019B0861B1
:1032980003FE0500B601B101AC01C9079003820322
:1032A80074039E03C305C5050001210A000002033B
:1032B8000100C506C70680001C0C000001020100C1
:1032C800470749078000A90D000000010100CE074B
:1032D800D00750000410000003000100D3010101D1
:1032E80001000000001907E706F006C90676046623
:1032F8000663048F066E0707060F06320858076B29
:10330800088507A408D407E50802063509AE07A70B
:1033180009EF09F60700000000E813BF109913C66B
:08332800136B138513771300EA
:00000001FF
