:100000000C9436000C94AD0C0C94D40C0C945E0043
:100010000C945E000C945E000C945E000C945E00E8
:100020000C945E000C945E000C945E000C945E00D8
:100030000C945E000C945E000C945E000C945E00C8
:100040000C94B30B0C945E000C942F0F0C945C0F6B
:100050000C945E000C945E000C945E000C945E00A8
:100060000C945E000C945E00A70C820F11241FBE3E
:10007000CFEFD8E0DEBFCDBF12E0A0E0B1E0E0EB13
:10008000F8E202C005900D92A438B107D9F726E036
:10009000A4E8B2E001C01D92A13CB207E1F710E074
:1000A000C6E3D0E004C02197FE010E944114C4338E
:1000B000D107C9F70E94980C0C94E3100C9400002F
:1000C000E2E10E9405010895E9E00E94050108951A
:1000D000EAE00E9405010895E1E00E94050108950B
:1000E000E3E00E9405010895E7E00E9405010895FC
:1000F000E5E00E9405010895E0E00E9405010895F1
:10010000E2E00E9405010895E4E00E9405010895DF
:10011000ECE00E9405010895E8E00E9405010895C1
:10012000EEE00E9405010895E4E10E9405010895B2
:10013000E0E10E9405010895E7E10E9405010895AC
:10014000E6E00E9405010895EBE00E940501089594
:10015000EDE00E9405010895EFE00E940501089579
:10016000E1E10E9405010895E3E10E94050108957F
:10017000E5E10E9405010895E6E10E940501089568
:1001800021968A929A92AA92BA92CA92DA92EA92A4
:10019000FA920A931A932197E0916901F0916A010A
:1001A0000080F181E02DC083D1830895C0916B015F
:1001B000D0916C01E881F981C081D181219619919A
:1001C0000991F990E990D990C990B990A990999026
:1001D0008990219708952F903F90E7E6F1E0CDB701
:1001E000DEB7EDBFFEBF3F922F9208952F903F9054
:1001F000CDBFDEBF3F922F920895E0E80E94050137
:100200000895E0E40E94050108952F923F924F92D5
:100210005F926F927F922FB62F92CF93DF937E2EB5
:10022000F894E0910001EF5FE0930001E13011F4F8
:100230000E94EB00E0E0E0937901E72DE07849F0DF
:100240000E943A05F0917A01F17071F00E94D60394
:100250000BC0E72DEC3140F4EE0FF0E0EF5BFD4F0B
:100260000190F081E02D0995F0917901EF2FE17077
:1002700059F0F27011F00E94C0008F938F2F0E94EE
:100280001B038F910E94D6002091000121502093E2
:100290000001222311F40E94F600DF91CF912F90EC
:1002A0002FBE7F906F905F904F903F902F9008955A
:1002B000FC014081FB013081842F877090E0A0E039
:1002C000B0E0B695A7959795879588549B4FFC010C
:1002D0002081F42FF21B2F2F21704670242B832FA7
:1002E000877090E0A0E0B0E0B695A79597958795C8
:1002F00088549B4FFC019081F32FF91B9F2F917025
:100300003670932B41E050E0291708F040E0CA0115
:1003100008958F929F92AF92BF92EF92FF920F93A8
:100320001F93CF93DF937C014A015B01B694A7949E
:1003300097948794423051056105710580F08A01D8
:10034000000F111F0E0D1F1DE401CC0FDD1FCE0D80
:10035000DF1DB801CE010E945801892B59F4DF91AD
:10036000CF911F910F91FF90EF90BF90AF909F9012
:100370008F900895F80190818181288139812083AF
:10038000318398838983A401B501D0CF7F928F9266
:100390009F92AF92BF92CF92DF92EF92FF920F9314
:1003A0001F93CF93DF938C014A015B01FC017080A6
:1003B00064017501CC0CDD1CEE1CFF1C7C141D04BB
:1003C0001E041F0470F4DF91CF911F910F91FF90D5
:1003D000EF90DF90CF90BF90AF909F908F907F90E5
:1003E0000895C601D7010196A11DB11D7816190601
:1003F0001A061B0698F0BC01660F771F600F711F6D
:10040000C601880F991F800F911F0E945801092E65
:10041000000C0008C80ED91EE01CF01CE601CC0F31
:10042000DD1FC00FD11F880C991C800E911EBE01CC
:10043000C4010E945801892B31F2F401908181811D
:10044000288139812083318398838983460157012C
:10045000AFCF4091BB044F5F4093BB0450E060E0DE
:1004600070E0E82FEE0FFF0BE45EFD4F0190F0818E
:10047000E02D2385E22FF0E0E854FB4F908191506E
:100480009083FA01EE0FFF1FE554FB4F9170220F8E
:10049000922B908381838BEB94E00C9489014091A3
:1004A000BB044F5F4093BB0450E060E070E0FA0192
:1004B000EE0FFF1FE554FB4FA82FAA0FBB0BA85E42
:1004C000BD4F0D90BC91A02D13969C91908381837C
:1004D0008BEB94E00C948901CF93DF9300D0CDB7E0
:1004E000DEB78091BB049FEF980F9093BB0490916F
:1004F000BD049A839091BE04998390E0880F991F60
:10050000FC01E554FB4F808191818093BD04909361
:10051000BE0441E050E060E070E08BEB94E00E94AC
:10052000C6018A8199810F900F90DF91CF91089534
:1005300080918402811115C0409171015091720126
:1005400060917301709174014F3F54076407740701
:1005500051F081E0141615061606170624F482E001
:10056000089584E008950895CF93DF93880F990B41
:10057000FC01E45EFD4F0190F081E02D0084F185E7
:10058000E02D3097C9F02281211116C021E022838D
:10059000885E9D4FEC01A881B98113968C9181836F
:1005A0009081E92FF0E0E854FB4F808181508083F7
:1005B0008170990F892B8C93DF91CF910895CF9300
:1005C000DF93880F990BFC01E45EFD4F0190F081F1
:1005D000E02D0084F185E02D309761F022812130FB
:1005E00049F41282885E9D4FEC01A881B981818116
:1005F00013968C93DF91CF9108958091750190911E
:100600007601A0917701B0917801409171015091EC
:1006100072016091730170917401481759076A075C
:100620007B0741F0E0916F01F091700121E024839C
:100630000C944F020895CF93DF93C0E0D0E0811572
:1006400089F0C0916901D0916A01E0916D01F0914A
:100650006E018481833031F081E084838091710167
:100660000E944F02E0916F01F0917001E0936D01E3
:10067000F0936E0180916B0190916C018093690100
:1006800090936A01809175013091760120917701F4
:1006900090917801809371013093720120937301DE
:1006A0009093740192E094830E94B402CE01DF9192
:1006B000CF910895809171010E94DF02E0916D0158
:1006C000F0916E018281811185E084830895CF933A
:1006D000DF93282F220F330BF901E85EFD4FC08115
:1006E000D1819A81245E3D4FD901ED91FD91248500
:1006F000921780F4911105C095E09C8391E090934E
:100700007A010E9429028A818F5F8A8380E0DF91CB
:10071000CF91089584E0FBCFE82FEE0FFF0BE85E4A
:10072000FD4F0190F081E02D108211820C94420C5B
:10073000CF93DF9300D00F92CDB7DEB70E946C024B
:100740008983892F592F550F550B9093750150931D
:1007500076015093770150937801292F220F330BA4
:10076000F901E85EFD4F408151814A835B834093EC
:100770006F0150937001245E3D4FF901208131815A
:1007800020936B0130936C01FA019481953031F420
:100790000E948C034981EA81FB81438310927A0194
:1007A0000F900F900F90DF91CF910895E091750118
:1007B000F0917601EE0FFF1FE85EFD4F0190F08192
:1007C000E02D8091BD049381981740F40E94FD02B2
:1007D0000E94980383E080937901089580E0FBCF25
:1007E00081E0809379010C9498030F931F93CF932A
:1007F000DF93C1E001C0CC0F8A95EAF720911E0279
:1008000030911F0280911A0290911B021092BB043A
:100810001092690110926A0120936B0130936C0170
:1008200010926D0110926E0180936F019093700190
:10083000AFEFBFEFCD018093710190937201A09350
:100840007301B09374018093750190937601A09326
:100850007701B09378011092790110927A0181E0CA
:100860000E94670320E030E0D0913F02DC23211595
:10087000310559F020E030E080913E02C82300911C
:100880000D0210910E02D1E011C0D115A9F380E044
:100890000E94670321E030E0EACFC11549F0F8017A
:1008A000D687C8010E94870421E030E0232BA9F3FA
:1008B000DF91CF911F910F9108950E941D06811124
:1008C0000E943D06E0916D01F0916E018081918161
:1008D000892B21F0809171010E9411080C94680706
:1008E0000E941D0681110E943D06E0916D01F0916C
:1008F0006E0180819181892B21F0809171010E948C
:1009000011080C944D0781E0809385020895CF92E1
:10091000DF92EF92FF920F931F93CF93DF93FC012F
:10092000A081B1810D90BC91A02D54962D913D9147
:1009300056972115310509F441C0428553856485D8
:10094000758500E010E0E901CA84DB84EC84FD8455
:100950004C155D056E057F0508F042C0C901828314
:10096000938304831583009719F0EC01EC83FD83D6
:1009700001151105F1F1E801EA83FB835696CD914B
:10098000DD910A851B852C853D851897CD90DD90DE
:10099000ED90FD9054970C151D052E053F0570F543
:1009A000C416D506E606F70628F040175107620779
:1009B000730768F45696ED93FD9309C054968D9392
:1009C000FD938D93FD931482158212821382DF9121
:1009D000CF911F910F91FF90EF90DF90CF900895EE
:1009E000E9018A819B818901009709F4B8CF9C01B4
:1009F000AACF5496ED93FD935697C0CFC416D50653
:100A0000E606F70620F7D1CFCF93DF93DC01ED9117
:100A1000FD9112970190F081E02D12960D90BC91FE
:100A2000A02D248935892817390711F4A48BB58B9B
:100A3000268937892817390719F4A68BB78B9D01AA
:100A4000109739F0EC014C815D8114964D935D93C4
:100A50001697EC018C819D81009719F0EC01AA8317
:100A6000BB83232B21F484899589868B978BDF9117
:100A7000CF910895EF92FF920F931F93CF93DF933F
:100A8000EC0180918502811509F4A7C08C859D85B4
:100A9000AE85BF850196A11DB11D8C879D87AE8750
:100AA000BF87488159816A817B8184179507A60792
:100AB000B70709F092C088899989AA89BB890196EC
:100AC000A11DB11D4C815D816E817F814817590741
:100AD0006A077B0718F4A0E0B0E0CD01888B998B02
:100AE000AA8BBB8B1C861D861E861F860E891F89BE
:100AF0000115110509F471C0F8014285538564851B
:100B00007585481759076A077B0709F066C09F017A
:100B10000280F381E02D309749F04285538564854A
:100B2000758584179507A607B70789F3D80114962A
:100B30008D919D91009721F0DC011296ED93FD932C
:100B4000309711F0848395838C899D890817190744
:100B500011F4EC8BFD8B309711F4EC89FD89EE8B51
:100B6000FF8BF901128213827801D80112960D9140
:100B70001D911497ED91FD910280F381E02DC70145
:100B80000995F70186819781A085B18510979040DE
:100B9000804051F14285538564857585840F951F8A
:100BA000A61FB71F4C815D816E817F814817590751
:100BB0006A077B0738F4841B950BA60BB70B0197CC
:100BC000A109B109F70182879387A487B587C70177
:100BD0000E9487040115110539F6DF91CF911F910D
:100BE0000F91FF90EF900895D7011E961C92F2CFBF
:100BF000FC0182810C9467030E941D0680916801AC
:100C00000895809368010E94F5030E9483040C9468
:100C1000F0030C94410CCF93DF930F92CDB7DEB766
:100C200089830E949802811102C00E948E0C8981E2
:100C30000F90DF91CF910C946400209192022130AB
:100C4000D1F040918A0250918B0260918C02709198
:100C50008D0280918E0290918F02A0919002B091AE
:100C60009102842B952BA62BB72B21E0892B8A2B65
:100C70008B2B09F420E0822F08951092920210929B
:100C80008E0210928F021092900210929102109296
:100C90008A0210928B0210928C0210928D02809127
:100CA000860290918702A0918802B0918902809378
:100CB000930290939402A0939502B09396020895A4
:100CC0000E94910C8091930290919402A0919502C0
:100CD000B09196020196A11DB11D8093930290934D
:100CE0009402A0939502B093960280918E02909107
:100CF0008F02A0919002B09191020196A11DB11DA9
:100D000080938E0290938F02A0939002B0939102F1
:100D1000089580918E0290918F02A0919002B091DF
:100D2000910210979040804069F140919302509158
:100D300094026091950270919602415051096109A7
:100D400071094093930250939402609395027093BB
:100D500096020197A109B10980938E0290938F02A8
:100D6000A0939002B093910280919302909194028B
:100D7000A0919502B0919602892B8A2B8B2B11F4AE
:100D80000C948F0C089580918E0290918F02A09107
:100D90009002B091910240918A0250918B02609131
:100DA0008C0270918D02842B952BA62BB72B892B4F
:100DB0008A2B8B2B29F40E94910C81E08093920264
:100DC000089580919202811521F0109292020C9464
:100DD0008F0C08950E94950C80919302909194023B
:100DE000A0919502B09196020196A11DB11D80932C
:100DF000930290939402A0939502B09396028091EF
:100E00008A0290918B02A0918C02B0918D02019682
:100E1000A11DB11D80938A0290938B02A0938C0236
:100E2000B0938D02089580918A0290918B02A091D7
:100E30008C02B0918D0210979040804069F14091F2
:100E400093025091940260919502709196024150E4
:100E50005109610971094093930250939402609380
:100E60009502709396020197A109B10980938A02B5
:100E700090938B02A0938C02B0938D028091930289
:100E800090919402A0919502B0919602892B8A2BA1
:100E90008B2B11F40C94930C08950E941D06811164
:100EA00083E10895CF93DF930F92CDB7DEB78983A7
:100EB0000E941D0689810E946703898380917A01BF
:100EC00081110E94D60389810F90DF91CF910895FF
:100ED000CF930E941D06C82F8111C3E1E0916D01DF
:100EE000F0916E018281815082830E945A0381E0D9
:100EF000809379010E9498038C2FCF910895CF930E
:100F0000DF930F92CDB7DEB789830E941D06E09173
:100F10006D01F0916E0182818150828389810E94EE
:100F20006703898381110CC00E945A0381E080937A
:100F300079010E94980389810F90DF91CF910895E4
:100F4000E0916D01F0916E0182818F5F8283F3CF1A
:100F5000CF930E941D06C82F8111C3E180917101BA
:100F60000E94DF020E94D60380917101909172016C
:100F7000A0917301B0917401409175015091760177
:100F8000609177017091780184179507A607B707DC
:100F900011F40E94B4028C2FCF910895CF93DF9368
:100FA00000D0CDB7DEB789839A830E941D068111D8
:100FB00083E14091710150917201609173017091D0
:100FC0007401141615061606170614F44091B001A4
:100FD000E981FA8140830F900F90DF91CF910895BE
:100FE000CF93DF9300D00F92CDB7DEB789836A83AA
:100FF0007B830E941D06811183E19981E92FEE0F09
:10100000FF0BE85EFD4F0190F081E02D948193701D
:10101000EA81FB8190830F900F900F90DF91CF9129
:101020000895E82FEE0FFF0BE85EFD4FA081B18120
:10103000ED91FD911297309771F01D921D92809164
:10104000B001DF010380F481E02D12968D931D9293
:101050001D923097B1F70895CF93DF930F92CDB7DC
:10106000DEB789830E941D06811183E19981E92FF2
:10107000F0E0EE0FFF1FE45CFD4F0190F081E02DEA
:10108000909171019283A0916D01B0916E012D91AB
:101090003D9123833483FE93EE9313962C91139703
:1010A000218390812695291760F4E92FF0E0E85418
:1010B000FB4F208121502083990F2170922B139692
:1010C0009C930F90DF91CF910895CF93DF9300D041
:1010D000CDB7DEB789830E941D068A83811511F082
:1010E00083E18A838981E82FF0E0EE0FFF1FE45C43
:1010F000FD4F0190F081E02DA0916D01B0916E0146
:10110000818113968C931397838194818D939D9302
:10111000138214828091B00182830E94D6038A8157
:101120000F900F90DF91CF910895DC01ED91FD912B
:1011300084819581DC01ED91FD910994CF93DF933A
:1011400000D00F92CDB7DEB789836A837B830E947C
:101150001D06811183E19981E92FF0E0EE0FFF1F59
:10116000E35FFD4F0190F081E02D0190F081E02DD3
:101170000190F081E02D4081518162817381AA81CB
:10118000BB8114964D935D936D937D931897448125
:101190005581668177814D935D936D937D9314970F
:1011A0004085518562857385FD014087518762873F
:1011B00073870F900F900F90DF91CF910895CF928A
:1011C000DF92EF92FF920F931F93CF93DF9300D0A4
:1011D000CDB7DEB7182F69837A830E941D0681116F
:1011E00083E1E12FF0E0EE0FFF1FE35FFD4F019081
:1011F000F081E02D9685913081F542855385648597
:1012000075850190F081E02D0190F081E02D00893D
:10121000118922893389401751076207730740F407
:10122000C480D580E680F7804C0D5D1D6E1D7F1D4E
:10123000401B510B620B730BE981FA814083518390
:10124000628373830F900F90DF91CF911F910F9165
:10125000FF90EF90DF90CF90089585E0F3CFAF92AD
:10126000BF92CF92DF92EF92FF920F931F93CF9393
:10127000DF9300D000D000D0CDB7DEB789834A839A
:101280005B836C837D83780189010E941D068E83B8
:10129000811511F083E18E83A980EA2DF0E0EE0F35
:1012A000FF1FE35FFD4F0190F081E02D86858111E6
:1012B00045C0A081B1810D90BC91A02D50964D915B
:1012C0005D916D917D915497AA80BB80CC80DD802B
:1012D0004A0D5B1D6C1D7D1D14968D919D910D9089
:1012E000BC91A02D84179507A607B70740F4481BAB
:1012F000590B6A0B7B0B41505109610971094287F7
:10130000538764877587E682F7820087118781E0BB
:101310008687CF010E9487048E810F900F900F90D7
:101320000F900F900F90DF91CF911F910F91FF9031
:10133000EF90DF90CF90BF90AF90089587E08E83BD
:10134000EBCFEF92FF920F931F93CF93DF9300D0D9
:1013500000D000D0CDB7DEB789834A835B836C832E
:101360007D83780189010E941D068E83811511F00D
:1013700083E18E839981E92FF0E0EE0FFF1FE35F99
:10138000FD4F0190F081E02D868581111FC08A817B
:101390009B81AC81BD8182879387A487B587E682D4
:1013A000F7820087118781E08687CF010E9487043A
:1013B0008E810F900F900F900F900F900F90DF91F4
:1013C000CF911F910F91FF90EF90089597E09E832A
:1013D000EFCF0F931F93CF93182F0E941D06C82F96
:1013E0008111C3E1E12FF0E0EE0FFF1FE35FFD4F3E
:1013F00000811181F8018685813051F4C8010E9475
:101400000405F80116868C2FCF911F910F91089536
:10141000C5E0F9CF26E040E052EC61E070E084E204
:1014200096E00E946F100E94380B61EB71E084E23D
:1014300096E00C94560D0F931F93CF93DF9300D03B
:1014400000D000D0CDB7DEB72DEC3CEC4CE45DE332
:1014500060919702709198028091990290919A02FE
:101460000E94F610609397027093980280939902FD
:1014700090939A022BED3FE049EC50E40E942B132D
:1014800020E030E040E05FE30E942B130E949813BD
:10149000AB01BC0123E089EE91E00E943B0B60911F
:1014A0009702709198028091990290919A0220E09F
:1014B00030E040E450E40E94501220E030E040E48C
:1014C00050E40E94671169837A838B839C8320E0B8
:1014D00030E040E850E40E942B138B018E839D8303
:1014E00020E030E040E85EE369817A818B819C8175
:1014F0000E94621187FD18C020E030E040E45FE305
:1015000069817A818B819C810E94621187FF6CC006
:1015100098014E815D8160E070E080E090E40E947F
:10152000F5108B018E839D8323E0A8016E817D8160
:101530008EEE91E00E943B0B6091970270919802B1
:101540008091990290919A0220E030E040EA50E4C4
:101550000E94501220E030E040EA50E40E946711FF
:1015600020E030E040E05FE30E94621187FF44C06A
:1015700040E050E060E87FE323E087EF91E00E94E5
:101580003B0B609197027091980280919902909123
:101590009A0220E030E040E850E40E94501220E03F
:1015A00030E040E85EE30E942B139B01AC010E94F7
:1015B000F61020E030E040E85FE30E94F510AB0158
:1015C000BC0123E080EE91E00E943B0B0E945A0B8D
:1015D0000F900F900F900F900F900F90DF91CF9181
:1015E0001F910F910C948C0020E030E040E850E413
:1015F000B8018E819D8193CF40E050E060E87FEBA1
:10160000BBCFCF92DF92EF92FF920F931F93CF93B6
:101610006B01C0919B02C43118F52BE1C29F800180
:101620001124F801E456FD4F7F0143E150E0BC0175
:10163000CF010E94E610F701138AF601848995898B
:10164000F701848B958BD801AE54BD4F85E0F60130
:10165000769601900D928A95E1F7CF5FC0939B0239
:10166000CF911F910F91FF90EF90DF90CF90089551
:1016700010929B020895CF93DF93CDB7DEB76B979F
:101680000FB6F894DEBF0FBECDBF1D8A1E8A4F8BEA
:10169000588F698F7A8F2B8FBE016F5F7F4F0E94AB
:1016A000010B6B960FB6F894DEBF0FBECDBFDF9176
:1016B000CF9108951F93CF93DF9380919B02811563
:1016C00081F064E284E296E00E944B0D10E080918C
:1016D0009B02181750F084E296E00E94520D10927F
:1016E0009B02DF91CF911F910895111529F06CE2B3
:1016F00084E296E00E944B0D8BE1189FE0011124DB
:10170000C456DD4FBE0184E296E00E94490D6AE3B3
:1017100084E296E00E944B0D8C899D898130910571
:1017200089F082309105B9F0892B51F42A8D30E08F
:101730004E895F89688D798D84E296E00E942D0F35
:101740001F5FC5CF6E897F894AE050E084E296E052
:101750000E94280EF5CF6E8970E0F6CF8FE891E0F9
:101760000C94FD0008951F920F920FB60F92112452
:101770002F933F934F935F936F937F938F939F9399
:10178000AF93BF93EF93FF9380911B0690911C063C
:10179000A0911D06B0911E0630911A0623E0230F7A
:1017A0002D3798F50196A11DB11D20931A0680933F
:1017B0001B0690931C06A0931D06B0931E068091F5
:1017C0001F0690912006A0912106B0912206019655
:1017D000A11DB11D80931F0690932006A0932106A2
:1017E000B09322060E94AE0BFF91EF91BF91AF9193
:1017F0009F918F917F916F915F914F913F912F9129
:101800000F900FBE0F901F90189526E8230F029699
:10181000A11DB11DCACF84B5826084BD84B581602D
:1018200084BD85B5826085BD85B5816085BDEEE6E8
:10183000F0E0808181608083E1E8108280818260B5
:101840008083808181608083E0E880818160808303
:10185000E1EB808184608083E0EB80818160808324
:10186000EAE78081846080838081826080838081D8
:10187000816080838081806880831092C100089598
:10188000FFCFFFCFCF93DF93E82FEE0FFF0BE45E88
:10189000FD4FA081B18114968D919D910197149770
:1018A000ED91FD91E80FF91F19968C911D978230EB
:1018B00079F584E890E0892F24E830E020839F01C7
:1018C00021503109E901888316963D912C91179793
:1018D000CF010297EC0138830197EC01288306972A
:1018E00026E0EC0119922A95E9F7019720E8EC012E
:1018F00028830C972CE0EC0119922A95E9F70D90BA
:10190000BC91A02D7797ED93FD93DF91CF91089532
:1019100080EA90E0892F20EA30E0D0CF08957894D3
:101920000895F894089578940895F8940895089582
:101930000E940B0C0E94970C0E94B20B0E940A0A94
:10194000809123060E940B0680E090E0089580912C
:10195000400280932306089508951F920F920FB6B8
:101960000F9211242F933F934F935F936F937F9325
:101970008F939F93AF93BF93EF93FF93E091AC014D
:10198000F091AD010995FF91EF91BF91AF919F91BA
:101990008F917F916F915F914F913F912F910F9018
:1019A0000FBE0F901F9018951F920F920FB60F92B7
:1019B00011242F933F934F935F936F937F938F9354
:1019C0009F93AF93BF93EF93FF93E091AE01F0919C
:1019D000AF010995FF91EF91BF91AF919F918F91C9
:1019E0007F916F915F914F913F912F910F900FBE1B
:1019F0000F901F9018950F931F93CF93DF9300D0F4
:101A000000D000D0CDB7DEB789839A834B835C8347
:101A10006D837E8300E010E0AB81BC810A171B0759
:101A200061F4C8010F900F900F900F900F900F90DE
:101A3000DF91CF911F910F910895A981BA81ED9106
:101A4000FD910190F081E02DAD81BE816C91898185
:101A50009A810995892B29F38D819E8101968D8329
:101A60009E830F5F1F4FD8CF6115710579F0FB0181
:101A700001900020E9F73197AF01461B570BDC01BD
:101A8000ED91FD910280F381E02D099480E090E0DA
:101A900008950C94340DDC01ED91FD910190F081DD
:101AA000E02D09946EEF71E00C94340DCF93DF9329
:101AB00000D000D0CDB7DEB789839A830E94340D61
:101AC0008B839C8389819A810E94520D2B813C815A
:101AD000820F931F0F900F900F900F90DF91CF9177
:101AE00008958F929F92AF92BF92CF92DF92EF9222
:101AF000FF920F931F93CF93DF93CDB7DEB7A397DA
:101B00000FB6F894DEBF0FBECDBF8AA39BA3B42E41
:101B1000A52E962E872E19A2223008F42AE08E01D7
:101B20000F5D1F4FC22ED12CE12CF12C6B2D7A2D85
:101B3000892D982D9601A7010E941F148B2D9A2D97
:101B4000A92DB82DB22EA32E942E852E6A300CF519
:101B5000605DF80162938F018C159D05AE05BF0590
:101B600028F7BF018AA19BA10E94340DA3960FB64E
:101B7000F894DEBF0FBECDBFDF91CF911F910F91C3
:101B8000FF90EF90DF90CF90BF90AF909F908F909D
:101B90000895695CDECFCF92DF92EF92FF92CF93F0
:101BA000DF9300D000D0CDB7DEB78B839C836A0172
:101BB0007B0121153105A1F4DC01ED91FD91129716
:101BC0000190F081E02D642FCD010F900F900F90C8
:101BD0000F90DF91CF91FF90EF90DF90CF9009941D
:101BE0002A30310519F4F7FC11C02AE0A601B7012B
:101BF0008B819C810F900F900F900F90DF91CF9170
:101C0000FF90EF90DF90CF900C94710D6DE28B817F
:101C10009C810E944B0D89839A8344275527BA01E2
:101C20004C195D096E097F092AE08B819C810E9415
:101C3000710D29813A81820F931F0F900F900F90A1
:101C40000F90DF91CF91FF90EF90DF90CF900895AC
:101C50009A01AB01770F770B672F0C94CB0D2115F1
:101C6000310541F4DC01ED91FD910190F081E02D11
:101C7000642F09940C94710D9A01AB0160E070E03F
:101C80000C942F0EAF92BF92CF92DF92EF92FF9201
:101C90000F931F93CF93DF9300D000D000D0CDB728
:101CA000DEB78C016A017B01B22E9A01AB01B6014D
:101CB000C7010E94A01361E072E0811114C0B60157
:101CC000C7010E94211365E072E0892B61F42FEFB8
:101CD0003FEF4FE75FE4B601C7010E941C131816DF
:101CE000ACF469E072E0C8010F900F900F900F9074
:101CF0000F900F90DF91CF911F910F91FF90EF9078
:101D0000DF90CF90BF90AF900C94340D2FEF3FEF4A
:101D10004FE75FECB601C7010E94621187FDE1CF7A
:101D200040E050E09A01B601C7010E94621187FFAE
:101D30005AC06DE2C8010E944B0D8D839E83F7FA55
:101D4000F094F7F8F094A12C60E070E080E09FE35D
:101D5000BA104CC09601A7010E94F61069837A83DD
:101D60008B839C830E94D9116B017C012AE0AB011B
:101D7000BC01C8010E94710D2D813E81280F391FC1
:101D80002D833E83B114E1F0B601C7010E94081211
:101D90009B01AC0169817A818B819C810E94F51045
:101DA000F62EE72ED82EC92E6EE2C8010E944B0DEA
:101DB0002D813E81280F391F2D833E83B1101EC017
:101DC0008D819E810F900F900F900F900F900F902C
:101DD000DF91CF911F910F91FF90EF90DF90CF9007
:101DE000BF90AF9008951D821E82ADCF20E030E0FD
:101DF00040E251E40E946711A394AACFBA9420E074
:101E000030E040E251E46F2D7E2D8D2D9C2D0E94FF
:101E10002B1369837A838B839C830E94D9116B0176
:101E20004AE050E0C8010E943C0E2D813E81280FFF
:101E3000391F2D833E83B60180E090E00E94081296
:101E40009B01AC0169817A818B819C810E94F51094
:101E5000F62EE72ED82EC92EB1CF0C94420E2F931A
:101E60002FB72F938F939F93EF93FF93E0913406B7
:101E7000F09135068081E0913A06F0913B0682FDB3
:101E800019C0908180913D068F5F8F7320913E062F
:101E9000821741F0E0913D06F0E0EC5DF94F958F3F
:101EA00080933D06FF91EF919F918F912F912FBFCE
:101EB0002F9118958081F6CF1F920F920FB60F9237
:101EC00011242F933F934F935F936F937F938F933F
:101ED0009F93AF93BF93EF93FF9384E296E00E94AA
:101EE000E20FFF91EF91BF91AF919F918F917F9101
:101EF0006F915F914F913F912F910F900FBE0F9077
:101F00001F901895E4E2F6E01282138288EE93E0C7
:101F1000848395831682178285E792E0808391837C
:101F200085EC8487158684EC8687178680EC808B09
:101F3000118A81EC828B138A82EC848B158A86EC61
:101F4000868B178A118E128E138E148E0895FC01C3
:101F5000918D228D892F90E0805C9F4F821B91098B
:101F60008F7390E00895FC01918D828D981731F068
:101F7000828DE80FF11D858D90E008958FEF9FEF22
:101F80000895FC01918D828D981761F0A28DAE0F9E
:101F9000BF2FB11D5D968C91928D9F5F9F73928F25
:101FA00090E008958FEF9FEF0895FC01238D348D0D
:101FB000832F90E0821B9109231710F0CF9608958C
:101FC00001970895FC01A48DA80FB92FB11DA35A44
:101FD000BF4F2C91848D01968F73848FA689B7890A
:101FE0002C93A089B1898C91837080648C93938D9C
:101FF000848D981306C00288F389E02D80818F7D3F
:1020000080830895CF93DF93EC01888D811111C0F7
:10201000DF91CF9108950FB607FC0DC0808185FF39
:102020000AC0A889B9898C9185FF05C0CE010E949C
:10203000E20FEA89FB89808185FDEDCFA889B98906
:102040008C9186FFE8CFE4CFEF92FF920F931F931E
:10205000CF93DF93EC01F62E81E0888F9B8D8C8DE2
:1020600098131AC0E889F989808185FF15C09FB748
:10207000F894EE89FF896083E889F989808183700B
:10208000806480839FBF81E090E0DF91CF911F91BA
:102090000F91FF90EF9008950B8D0F5F1F4F0F73FF
:1020A000E02E8C8D8E1579F0EB8DEC0FFD2FF11D50
:1020B000E35AFF4FF0829FB7F8940B8FEA89FB89B0
:1020C00080818062DECF0FB607FCEBCFE889F9890B
:1020D000808185FFE6CFCE010E94E20FE2CFCF9252
:1020E000DF92EF92FF92CF93DF9300D00F92CDB7A4
:1020F000DEB78A839B836A017B012983DC015096CA
:10210000ED91FD9182E08083C114B1EEDB06E10424
:10211000F10491F060E079E08DE390E09A01A7018D
:102120000E941F14215031094109510956954795C4
:10213000379527953031B0F0AA81BB815096ED914B
:10214000FD91108260E874E88EE190E09601A701AD
:102150000E941F1421503109410951095695479594
:1021600037952795AA81BB811C96ED91FD9130830F
:10217000ED91FD91208318961C921497ED91FD919D
:10218000B981B083AA81BB815296ED91FD91808186
:1021900080618083FE91EE91808188608083ED91E3
:1021A000FD91808180688083FE91EE9180818F7D9A
:1021B00080830F900F900F90DF91CF91FF90EF9061
:1021C000DF90CF900895F8940C944714FB01DC0144
:1021D0004150504048F001900D920020C9F701C0D5
:1021E0001D9241505040E0F708955058BB27AA2750
:1021F0000E940D110C94E2120E94D41238F00E9439
:10220000DB1220F039F49F3F19F426F40C94D1121C
:102210000EF4E095E7FB0C94BD12E92F0E94F31237
:1022200058F3BA17620773078407950720F079F40B
:10223000A6F50C9415130EF4E0950B2EBA2FA02DD5
:102240000B01B90190010C01CA01A0011124FF2763
:10225000591B99F0593F50F4503E68F11A16F0405E
:10226000A22F232F342F4427585FF3CF469537955D
:102270002795A795F0405395C9F77EF41F16BA0B22
:10228000620B730B840BBAF09150A1F0FF0FBB1FD0
:10229000661F771F881FC2F70EC0BA0F621F731F19
:1022A000841F48F4879577956795B795F7959E3F76
:1022B00008F0B0CF9395880F08F09927EE0F979507
:1022C000879508950E94991208F481E008950E946C
:1022D0007B110C94E2120E94DB1258F00E94D4127F
:1022E00040F029F45F3F29F00C94BD1251110C9479
:1022F00016130C94D1120E94F31268F39923B1F3D0
:10230000552391F3951B550BBB27AA27621773071B
:10231000840738F09F5F5F4F220F331F441FAA1FAF
:10232000A9F335D00E2E3AF0E0E832D0915050406B
:10233000E695001CCAF72BD0FE2F29D0660F771F19
:10234000881FBB1F261737074807AB07B0E809F0FF
:10235000BB0B802DBF01FF2793585F4F3AF09E3F84
:10236000510578F00C94BD120C9416135F3FE4F302
:10237000983ED4F3869577956795B795F7959F5FC7
:10238000C9F7880F911D9695879597F90895E1E013
:10239000660F771F881FBB1F621773078407BA0772
:1023A00020F0621B730B840BBA0BEE1F88F7E095CD
:1023B00008950E94FB1288F09F5798F0B92F992733
:1023C000B751B0F0E1F0660F771F881F991F1AF020
:1023D000BA95C9F714C0B13091F00E941513B1E05D
:1023E00008950C941513672F782F8827B85F39F05C
:1023F000B93FCCF3869577956795B395D9F73EF4B9
:1024000090958095709561957F4F8F4F9F4F089560
:10241000E89409C097FB3EF490958095709561957E
:102420007F4F8F4F9F4F9923A9F0F92F96E9BB2734
:102430009395F695879577956795B795F111F8CFB0
:10244000FAF4BB0F11F460FF1BC06F5F7F4F8F4F1B
:102450009F4F16C0882311F096E911C0772321F011
:102460009EE8872F762F05C0662371F096E8862FA9
:1024700070E060E02AF09A95660F771F881FDAF700
:10248000880F9695879597F908950E94D41220F0A9
:1024900019F00E94DB1250F40C94D1120C94161314
:1024A000E92F0E94F31288F35523B1F3E7FB62177B
:1024B000730784079507A8F189F3E92FFF2788237D
:1024C0002AF03197660F771F881FDAF7952F552767
:1024D000442332F091505040220F331F441FD2F753
:1024E000BB27E91BF50B621B730B840BB109B1F21F
:1024F00022F4620F731F841FB11D31972AF0660FFB
:10250000771F881FBB1FEFCF9150504062F041F002
:10251000882332F0660F771F881F91505040C1F713
:1025200093950C94C3128695779567959F5FD9F71D
:10253000F7CF990F0008550FAA0BE0E8FEEF16162B
:102540001706E807F907C0F012161306E407F507A7
:1025500098F0621B730B840B950B39F40A2661F01B
:10256000232B242B252B21F408950A2609F4A140BE
:10257000A6958FEF811D811D089597F99F6780E8CB
:1025800070E060E008959F3F31F0915020F487950E
:1025900077956795B795880F911D9695879597F9CB
:1025A00008959FEF80EC089500240A9416161706EC
:1025B00018060906089500240A9412161306140634
:1025C00005060895092E0394000C11F4882352F097
:1025D000BB0F40F4BF2B11F460FF04C06F5F7F4F4F
:1025E0008F4F9F4F089557FD9058440F551F59F036
:1025F0005F3F71F04795880F97FB991F61F09F3FF0
:1026000079F087950895121613061406551FF2CF18
:102610004695F1DF08C0161617061806991FF1CF68
:1026200086957105610508940895E894BB2766278F
:102630007727CB0197F908950E94991208F48FEF3C
:1026400008950E94FB1280E090E020F419F40EF44B
:102650000297839508950E943E130C94E2120E9403
:10266000D41238F00E94DB1220F0952311F00C9464
:10267000BD120C94D11211240C9416130E94F31263
:1026800070F3959FC1F3950F50E0551F629FF001C5
:10269000729FBB27F00DB11D639FAA27F00DB11DDE
:1026A000AA1F649F6627B00DA11D661F829F222767
:1026B000B00DA11D621F739FB00DA11D621F839FEE
:1026C000A00D611D221F749F3327A00D611D231FC4
:1026D000849F600D211D822F762F6A2F11249F5712
:1026E00050409AF0F1F088234AF0EE0FFF1FBB1F15
:1026F000661F771F881F91505040A9F79E3F5105D4
:1027000080F00C94BD120C9416135F3FE4F3983ED6
:10271000D4F3869577956795B795F795E7959F5F7D
:10272000C1F7FE2B880F911D9695879597F908950F
:102730009F930E94A7130F9007FCEE5F0C94D01399
:102740000E949912880B990B08950C94D1120E9443
:10275000FB12D8F3E894E0E0BB279F57F0F02AED96
:102760003FE049EC06C0EE0FBB0F661F771F881FC6
:1027700028F0B23A62077307840728F0B25A620B56
:10278000730B840BE3959A9572F7803830F49A9521
:10279000BB0F661F771F881FD2F790480C94C51295
:1027A000EF93E0FF07C0A2EA2AED3FE049EC5FEBC0
:1027B0000E940D110E94E2120F90039401FC9058A8
:1027C000E2E9F8E20C94E4139F938F937F936F9365
:1027D000FF93EF939B01AC010E942B13EF91FF91AC
:1027E0000E94F8132F913F914F915F910C942B13FE
:1027F000DF93CF931F930F93FF92EF92DF927B01B2
:102800008C01689406C0DA2EEF010E943E13FE018F
:10281000E894A5912591359145915591A6F3EF0145
:102820000E940D11FE019701A801DA9469F7DF906B
:10283000EF90FF900F911F91CF91DF910895A1E24A
:102840001A2EAA1BBB1BFD010DC0AA1FBB1FEE1F2A
:10285000FF1FA217B307E407F50720F0A21BB30B75
:10286000E40BF50B661F771F881F991F1A9469F7F1
:1028700060957095809590959B01AC01BD01CF014D
:102880000895EE0FFF1F0590F491E02D0994F89440
:10289000FFCF05A84CCDB2D44EB93836A9020C50A2
:1028A000B9918688083CA6AAAA2ABE000000803FEB
:1028B0000000000000000000000000000000000018
:1028C0000000000000000000000000000000000008
:1028D00000000000000000000000000000000000F8
:1028E00000000000000000000000000000000000E8
:1028F00000000000000000000000000000000000D8
:1029000000000000000000000000000000000000C7
:102910000000000000000000FF00002E020000C3C5
:1029200005FFFFFFFFFFFFFFFF00000F0200000099
:10293000003200000032000000020000000100012F
:10294000000000FFFF000001000000000000000088
:10295000000000000000000200FF0000AC0CAC0C06
:10296000FF5B506C6F747465722057617665666F9B
:10297000726D735D2073696E65202B2074726961BE
:102980006E676C65202B20737175617265202B203A
:10299000736177746F6F74680073696E6500747229
:1029A00069616E676C6500737175617265000D0A0F
:1029B000006E616E00696E66006F7666007B018F47
:1029C0000195081502F805008A01C30520022E02B0
:1029D000C104C30400011B0A000000010100C80576
:1029E000CA055000400C000001000100A7010100D1
:1029F000001307E106EA06C306700460065D048959
:102A0000066807010609062C08520765087F079E1D
:102A100008CE07DF08FC052F09A807A109E909F07E
:102A200007000000002410FB0CD50F0210A70FC1F7
:042A30000FB30F00D1
:00000001FF
