:100000000C9436000C94890C0C94B00C0C945E008B
:100010000C945E000C945E000C945E000C945E00E8
:100020000C945E000C945E000C945E000C945E00D8
:100030000C945E000C945E000C945E000C945E00C8
:100040000C948F0B0C945E000C940B0F0C94380FD7
:100050000C945E000C945E000C945E000C945E00A8
:100060000C945E000C945E00830C5E0F11241FBE86
:10007000CFEFD8E0DEBFCDBF12E0A0E0B1E0E0EE10
:10008000F6E202C005900D92A039B107D9F726E03B
:10009000A0E9B2E001C01D92A13DB207E1F710E076
:1000A000C6E3D0E004C02197FE010E946813C43368
:1000B000D107C9F70E94740C0C94BF100C94000077
:1000C000E2E10E9405010895E9E00E94050108951A
:1000D000EAE00E9405010895E1E00E94050108950B
:1000E000E3E00E9405010895E7E00E9405010895FC
:1000F000E5E00E9405010895E0E00E9405010895F1
:10010000E2E00E9405010895E4E00E9405010895DF
:10011000ECE00E9405010895E8E00E9405010895C1
:10012000EEE00E9405010895E4E10E9405010895B2
:10013000E0E10E9405010895E7E10E9405010895AC
:10014000E6E00E9405010895EBE00E940501089594
:10015000EDE00E9405010895EFE00E940501089579
:10016000E1E10E9405010895E3E10E94050108957F
:10017000E5E10E9405010895E6E10E940501089568
:1001800021968A929A92AA92BA92CA92DA92EA92A4
:10019000FA920A931A932197E0916D01F0916E0102
:1001A0000080F181E02DC083D1830895C0916F015B
:1001B000D0917001E881F981C081D1812196199196
:1001C0000991F990E990D990C990B990A990999026
:1001D0008990219708952F903F90E7E6F1E0CDB701
:1001E000DEB7EDBFFEBF3F922F9208952F903F9054
:1001F000CDBFDEBF3F922F920895E0E80E94050137
:100200000895E0E40E94050108952F923F924F92D5
:100210005F926F927F922FB62F92CF93DF937E2EB5
:10022000F894E0910001EF5FE0930001E13011F4F8
:100230000E94EB00E0E0E0937D01E72DE07849F0DB
:100240000E943A05F0917E01F17071F00E94D60390
:100250000BC0E72DEC3140F4EE0FF0E0E35BFD4F17
:100260000190F081E02D0995F0917D01EF2FE17073
:1002700059F0F27011F00E94C0008F938F2F0E94EE
:100280001B038F910E94D6002091000121502093E2
:100290000001222311F40E94F600DF91CF912F90EC
:1002A0002FBE7F906F905F904F903F902F9008955A
:1002B000FC014081FB013081842F877090E0A0E039
:1002C000B0E0B695A7959795879588539B4FFC010D
:1002D0002081F42FF21B2F2F21704670242B832FA7
:1002E000877090E0A0E0B0E0B695A79597958795C8
:1002F00088539B4FFC019081F32FF91B9F2F917026
:100300003670932B41E050E0291708F040E0CA0115
:1003100008958F929F92AF92BF92EF92FF920F93A8
:100320001F93CF93DF937C014A015B01B694A7949E
:1003300097948794423051056105710580F08A01D8
:10034000000F111F0E0D1F1DE401CC0FDD1FCE0D80
:10035000DF1DB801CE010E945801892B59F4DF91AD
:10036000CF911F910F91FF90EF90BF90AF909F9012
:100370008F900895F80190818181288139812083AF
:10038000318398838983A401B501D0CF7F928F9266
:100390009F92AF92BF92CF92DF92EF92FF920F9314
:1003A0001F93CF93DF938C014A015B01FC017080A6
:1003B00064017501CC0CDD1CEE1CFF1C7C141D04BB
:1003C0001E041F0470F4DF91CF911F910F91FF90D5
:1003D000EF90DF90CF90BF90AF909F908F907F90E5
:1003E0000895C601D7010196A11DB11D7816190601
:1003F0001A061B0698F0BC01660F771F600F711F6D
:10040000C601880F991F800F911F0E945801092E65
:10041000000C0008C80ED91EE01CF01CE601CC0F31
:10042000DD1FC00FD11F880C991C800E911EBE01CC
:10043000C4010E945801892B31F2F401908181811D
:10044000288139812083318398838983460157012C
:10045000AFCF4091CB044F5F4093CB0450E060E0BE
:1004600070E0E82FEE0FFF0BE85DFD4F0190F0818B
:10047000E02D2385E22FF0E0E853FB4F908191506F
:100480009083FA01EE0FFF1FE553FB4F9170220F8F
:10049000922B908381838BEC94E00C9489014091A2
:1004A000CB044F5F4093CB0450E060E070E0FA0172
:1004B000EE0FFF1FE553FB4FA82FAA0FBB0BAC5D40
:1004C000BD4F0D90BC91A02D13969C91908381837C
:1004D0008BEC94E00C948901CF93DF9300D0CDB7DF
:1004E000DEB78091CB049FEF980F9093CB0490914F
:1004F000CD049A839091CE04998390E0880F991F40
:10050000FC01E553FB4F808191818093CD04909352
:10051000CE0441E050E060E070E08BEC94E00E949B
:10052000C6018A8199810F900F90DF91CF91089534
:1005300080919002811115C0409175015091760112
:1005400060917701709178014F3F540764077407F9
:1005500051F081E0141615061606170624F482E001
:10056000089584E008950895CF93DF93880F990B41
:10057000FC01E85DFD4F0190F081E02D0084F185E4
:10058000E02D3097C9F02281211116C021E022838D
:100590008C5D9D4FEC01A881B98113968C9181836C
:1005A0009081E92FF0E0E853FB4F808181508083F8
:1005B0008170990F892B8C93DF91CF910895CF9300
:1005C000DF93880F990BFC01E85DFD4F0190F081EE
:1005D000E02D0084F185E02D309761F022812130FB
:1005E00049F412828C5D9D4FEC01A881B981818113
:1005F00013968C93DF91CF9108958091790190911A
:100600007A01A0917B01B0917C01409175015091DC
:1006100076016091770170917801481759076A0750
:100620007B0741F0E0917301F091740121E0248394
:100630000C944F020895CF93DF93C0E0D0E0811572
:1006400089F0C0916D01D0916E01E0917101F0913E
:1006500072018481833031F081E08483809175015F
:100660000E944F02E0917301F0917401E0937101D7
:10067000F093720180916F019091700180936D01F0
:1006800090936E018091790130917A0120917B01E4
:1006900090917C01809375013093760120937701CE
:1006A0009093780192E094830E94B402CE01DF918E
:1006B000CF910895809175010E94DF02E091710150
:1006C000F09172018281811185E084830895CF9336
:1006D000DF93282F220F330BF901EC5DFD4FC08112
:1006E000D1819A81285D3D4FD901ED91FD912485FD
:1006F000921780F4911105C095E09C8391E090934E
:100700007E010E9429028A818F5F8A8380E0DF91C7
:10071000CF91089584E0FBCFE82FEE0FFF0BEC5D47
:10072000FD4F0190F081E02D108211820C941E0C7F
:10073000CF93DF9300D00F92CDB7DEB70E946C024B
:100740008983892F592F550F550B90937901509319
:100750007A0150937B0150937C01292F220F330B98
:10076000F901EC5DFD4F408151814A835B834093E9
:10077000730150937401285D3D4FF901208131814F
:1007800020936F0130937001FA019481953031F418
:100790000E948C034981EA81FB81438310927E0190
:1007A0000F900F900F90DF91CF910895E091790114
:1007B000F0917A01EE0FFF1FEC5DFD4F0190F0818B
:1007C000E02D8091CD049381981740F40E94FD02A2
:1007D0000E94980383E080937D01089580E0FBCF21
:1007E00081E080937D010C9498030F931F93CF9326
:1007F000DF93C1E001C0CC0F8A95EAF720912A026D
:1008000030912B0280912602909127021092CB0406
:1008100010926D0110926E0120936F013093700160
:100820001092710110927201809373019093740180
:10083000AFEFBFEFCD018093750190937601A09348
:100840007701B09378018093790190937A01A09316
:100850007B01B0937C0110927D0110927E0181E0BA
:100860000E94670320E030E0D0914B02DC23211589
:10087000310559F020E030E080914A02C823009110
:10088000190210911A02D1E011C0D115A9F380E02C
:100890000E94670321E030E0EACFC11549F0F8017A
:1008A000D687C8010E94870421E030E0232BA9F3FA
:1008B000DF91CF911F910F9108950E941D06811124
:1008C0000E943D06E0917101F09172018081918159
:1008D000892B21F0809175010E9411080C94680702
:1008E0000E941D0681110E943D06E0917101F09168
:1008F000720180819181892B21F0809175010E9484
:1009000011080C944D0781E0809391020895CF92D5
:10091000DF92EF92FF920F931F93CF93DF93FC012F
:10092000A081B1810D90BC91A02D54962D913D9147
:1009300056972115310509F441C0428553856485D8
:10094000758500E010E0E901CA84DB84EC84FD8455
:100950004C155D056E057F0508F042C0C901828314
:10096000938304831583009719F0EC01EC83FD83D6
:1009700001151105F1F1E801EA83FB835696CD914B
:10098000DD910A851B852C853D851897CD90DD90DE
:10099000ED90FD9054970C151D052E053F0570F543
:1009A000C416D506E606F70628F040175107620779
:1009B000730768F45696ED93FD9309C054968D9392
:1009C000FD938D93FD931482158212821382DF9121
:1009D000CF911F910F91FF90EF90DF90CF900895EE
:1009E000E9018A819B818901009709F4B8CF9C01B4
:1009F000AACF5496ED93FD935697C0CFC416D50653
:100A0000E606F70620F7D1CFCF93DF93DC01ED9117
:100A1000FD9112970190F081E02D12960D90BC91FE
:100A2000A02D248935892817390711F4A48BB58B9B
:100A3000268937892817390719F4A68BB78B9D01AA
:100A4000109739F0EC014C815D8114964D935D93C4
:100A50001697EC018C819D81009719F0EC01AA8317
:100A6000BB83232B21F484899589868B978BDF9117
:100A7000CF910895EF92FF920F931F93CF93DF933F
:100A8000EC0180919102811509F4A7C08C859D85A8
:100A9000AE85BF850196A11DB11D8C879D87AE8750
:100AA000BF87488159816A817B8184179507A60792
:100AB000B70709F092C088899989AA89BB890196EC
:100AC000A11DB11D4C815D816E817F814817590741
:100AD0006A077B0718F4A0E0B0E0CD01888B998B02
:100AE000AA8BBB8B1C861D861E861F860E891F89BE
:100AF0000115110509F471C0F8014285538564851B
:100B00007585481759076A077B0709F066C09F017A
:100B10000280F381E02D309749F04285538564854A
:100B2000758584179507A607B70789F3D80114962A
:100B30008D919D91009721F0DC011296ED93FD932C
:100B4000309711F0848395838C899D890817190744
:100B500011F4EC8BFD8B309711F4EC89FD89EE8B51
:100B6000FF8BF901128213827801D80112960D9140
:100B70001D911497ED91FD910280F381E02DC70145
:100B80000995F70186819781A085B18510979040DE
:100B9000804051F14285538564857585840F951F8A
:100BA000A61FB71F4C815D816E817F814817590751
:100BB0006A077B0738F4841B950BA60BB70B0197CC
:100BC000A109B109F70182879387A487B587C70177
:100BD0000E9487040115110539F6DF91CF911F910D
:100BE0000F91FF90EF900895D7011E961C92F2CFBF
:100BF000FC0182810C9467030E941D0680916801AC
:100C00000895809368010E94F5030E9483040C9468
:100C1000F0030C941D0CCF93DF930F92CDB7DEB78A
:100C200089830E949802811102C00E946A0C898106
:100C30000F90DF91CF910C94640020919E0221309F
:100C4000D1F0409196025091970260919802709174
:100C5000990280919A0290919B02A0919C02B0917E
:100C60009D02842B952BA62BB72B21E0892B8A2B59
:100C70008B2B09F420E0822F089510929E0210928F
:100C80009A0210929B0210929C0210929D02109266
:100C900096021092970210929802109299028091F7
:100CA000920290919302A0919402B0919502809348
:100CB0009F029093A002A093A102B093A202089574
:100CC0000E946D0C80919F029091A002A091A102C0
:100CD000B091A2020196A11DB11D80939F02909335
:100CE000A002A093A102B093A20280919A029091D7
:100CF0009B02A0919C02B0919D020196A11DB11D85
:100D000080939A0290939B02A0939C02B0939D02C1
:100D1000089580919A0290919B02A0919C02B091BB
:100D20009D0210979040804069F140919F02509140
:100D3000A0026091A1027091A20241505109610983
:100D4000710940939F025093A0026093A102709397
:100D5000A2020197A109B10980939A0290939B0284
:100D6000A0939C02B0939D0280919F029091A0025B
:100D7000A091A102B091A202892B8A2B8B2B11F496
:100D80000C946B0C089580919A0290919B02A09113
:100D90009C02B0919D024091960250919702609101
:100DA000980270919902842B952BA62BB72B892B37
:100DB0008A2B8B2B29F40E946D0C81E080939E027C
:100DC000089580919E02811521F010929E020C944C
:100DD0006B0C08950E94710C80919F029091A0026B
:100DE000A091A102B091A2020196A11DB11D809314
:100DF0009F029093A002A093A102B093A2028091BF
:100E0000960290919702A0919802B0919902019652
:100E1000A11DB11D8093960290939702A093980212
:100E2000B093990208958091960290919702A091B3
:100E30009802B091990210979040804069F14091DA
:100E40009F025091A0026091A1027091A2024150B4
:100E500051096109710940939F025093A002609368
:100E6000A1027093A2020197A109B1098093960291
:100E700090939702A0939802B093990280919F0259
:100E80009091A002A091A102B091A202892B8A2B7D
:100E90008B2B11F40C946F0C08950E941D06811188
:100EA00083E10895CF93DF930F92CDB7DEB78983A7
:100EB0000E941D0689810E946703898380917E01BB
:100EC00081110E94D60389810F90DF91CF910895FF
:100ED000CF930E941D06C82F8111C3E1E0917101DB
:100EE000F09172018281815082830E945A0381E0D5
:100EF00080937D010E9498038C2FCF910895CF930A
:100F0000DF930F92CDB7DEB789830E941D06E09173
:100F10007101F091720182818150828389810E94E6
:100F20006703898381110CC00E945A0381E080937A
:100F30007D010E94980389810F90DF91CF910895E0
:100F4000E0917101F091720182818F5F8283F3CF12
:100F5000CF930E941D06C82F8111C3E180917501B6
:100F60000E94DF020E94D603809175019091760164
:100F7000A0917701B09178014091790150917A0167
:100F800060917B0170917C0184179507A607B707D4
:100F900011F40E94B4028C2FCF910895CF93DF9368
:100FA00000D0CDB7DEB789839A830E941D068111D8
:100FB00083E14091750150917601609177017091C4
:100FC0007801141615061606170614F44091B4019C
:100FD000E981FA8140830F900F90DF91CF910895BE
:100FE000CF93DF9300D00F92CDB7DEB789836A83AA
:100FF0007B830E941D06811183E19981E92FEE0F09
:10100000FF0BEC5DFD4F0190F081E02D948193701A
:10101000EA81FB8190830F900F900F90DF91CF9129
:101020000895E82FEE0FFF0BEC5DFD4FA081B1811D
:10103000ED91FD911297309771F01D921D92809164
:10104000B401DF010380F481E02D12968D931D928F
:101050001D923097B1F70895CF93DF930F92CDB7DC
:10106000DEB789830E941D06811183E19981E92FF2
:10107000F0E0EE0FFF1FE85BFD4F0190F081E02DE7
:10108000909175019283A0917101B09172012D919F
:101090003D9123833483FE93EE9313962C91139703
:1010A000218390812695291760F4E92FF0E0E85319
:1010B000FB4F208121502083990F2170922B139692
:1010C0009C930F90DF91CF910895CF93DF9300D041
:1010D000CDB7DEB789830E941D068A83811511F082
:1010E00083E18A838981E82FF0E0EE0FFF1FE85B40
:1010F000FD4F0190F081E02DA0917101B09172013E
:10110000818113968C931397838194818D939D9302
:10111000138214828091B40182830E94D6038A8153
:101120000F900F90DF91CF910895DC01ED91FD912B
:1011300084819581DC01ED91FD910994CF93DF933A
:1011400000D00F92CDB7DEB789836A837B830E947C
:101150001D06811183E19981E92FF0E0EE0FFF1F59
:10116000E75EFD4F0190F081E02D0190F081E02DD0
:101170000190F081E02D4081518162817381AA81CB
:10118000BB8114964D935D936D937D931897448125
:101190005581668177814D935D936D937D9314970F
:1011A0004085518562857385FD014087518762873F
:1011B00073870F900F900F90DF91CF910895CF928A
:1011C000DF92EF92FF920F931F93CF93DF9300D0A4
:1011D000CDB7DEB7182F69837A830E941D0681116F
:1011E00083E1E12FF0E0EE0FFF1FE75EFD4F01907E
:1011F000F081E02D9685913081F542855385648597
:1012000075850190F081E02D0190F081E02D00893D
:10121000118922893389401751076207730740F407
:10122000C480D580E680F7804C0D5D1D6E1D7F1D4E
:10123000401B510B620B730BE981FA814083518390
:10124000628373830F900F90DF91CF911F910F9165
:10125000FF90EF90DF90CF90089585E0F3CFAF92AD
:10126000BF92CF92DF92EF92FF920F931F93CF9393
:10127000DF9300D000D000D0CDB7DEB789834A839A
:101280005B836C837D83780189010E941D068E83B8
:10129000811511F083E18E83A980EA2DF0E0EE0F35
:1012A000FF1FE75EFD4F0190F081E02D86858111E3
:1012B00045C0A081B1810D90BC91A02D50964D915B
:1012C0005D916D917D915497AA80BB80CC80DD802B
:1012D0004A0D5B1D6C1D7D1D14968D919D910D9089
:1012E000BC91A02D84179507A607B70740F4481BAB
:1012F000590B6A0B7B0B41505109610971094287F7
:10130000538764877587E682F7820087118781E0BB
:101310008687CF010E9487048E810F900F900F90D7
:101320000F900F900F90DF91CF911F910F91FF9031
:10133000EF90DF90CF90BF90AF90089587E08E83BD
:10134000EBCFEF92FF920F931F93CF93DF9300D0D9
:1013500000D000D0CDB7DEB789834A835B836C832E
:101360007D83780189010E941D068E83811511F00D
:1013700083E18E839981E92FF0E0EE0FFF1FE75E96
:10138000FD4F0190F081E02D868581111FC08A817B
:101390009B81AC81BD8182879387A487B587E682D4
:1013A000F7820087118781E08687CF010E9487043A
:1013B0008E810F900F900F900F900F900F90DF91F4
:1013C000CF911F910F91FF90EF90089597E09E832A
:1013D000EFCF0F931F93CF93182F0E941D06C82F96
:1013E0008111C3E1E12FF0E0EE0FFF1FE75EFD4F3B
:1013F00000811181F8018685813051F4C8010E9475
:101400000405F80116868C2FCF911F910F91089536
:10141000C5E0F9CF26E040E052EC61E070E084E303
:1014200096E00E944B100E94110B65EB71E084E383
:1014300096E00C94320DCF93DF93CDB7DEB72897AB
:101440000FB6F894DEBF0FBECDBF2DEC3CEC4CE4E4
:101450005DE36091A7027091A8028091A90290912A
:10146000AA020E94D2106093A7027093A8028093F0
:10147000A9029093AA0220E030E040EA50E40E94E2
:1014800043110E94B511CB0168E070E00E941E1369
:10149000FC01EE0FFF1FEE0FFF1FE750FE4F808194
:1014A0009181A281B38189839A83AB83BC8328E431
:1014B00031EE4AE75FE36091A3027091A40280914C
:1014C000A5029091A6020E94AC126D837E838F8349
:1014D00098872AE037ED43EA5CE369817A818B8162
:1014E0009C810E94AC129B01AC016D817E818F8139
:1014F00098850E94D2106093A3027093A4028093F7
:10150000A5029093A6022DEC3CEC4CE45DE36981CE
:101510007A818B819C810E94AC1220E030E040E215
:1015200051E40E94AC1220E030E041E655E40E9414
:1015300043119B01AC016091690170916A01809136
:101540006B0190916C010E94D210609369017093BD
:101550006A0180936B0190936C0149815A816B8180
:101560007C818BED91E00E94330B4091A30250915E
:10157000A4026091A5027091A60282ED91E00E9402
:10158000330B4091690150916A0160916B01709138
:101590006C0120E081EE91E00E94140B0E94360B5A
:1015A00028960FB6F894DEBF0FBECDBFDF91CF9166
:1015B0000C948C00CF92DF92EF92FF920F931F93C7
:1015C000CF936B01C091AB02C43118F52BE1C29FE0
:1015D00080011124F801E455FD4F7F0143E150E003
:1015E000BC01CF010E94C210F701138AF601848961
:1015F0009589F701848B958BD801AE53BD4F85E05B
:10160000F601769601900D928A95E1F7CF5FC0932F
:10161000AB02CF911F910F91FF90EF90DF90CF9091
:1016200008951092AB020895CF93DF93CDB7DEB744
:101630006B970FB6F894DEBF0FBECDBF1D8A1E8A12
:101640004F8B588F698F7A8F2B8FBE016F5F7F4FC3
:101650000E94DA0A6B960FB6F894DEBF0FBECDBFBC
:10166000DF91CF91089521E00C94140B1F93CF9339
:10167000DF938091AB02811581F064E284E396E010
:101680000E94270D10E08091AB02181750F084E300
:1016900096E00E942E0D1092AB02DF91CF911F9128
:1016A0000895111529F06CE284E396E00E94270D5D
:1016B0008BE1189FE0011124C455DD4FBE0184E386
:1016C00096E00E94250D6AE384E396E00E94270DD0
:1016D0008C899D898130910589F082309105B9F01E
:1016E000892B51F42A8D30E04E895F89688D798D80
:1016F00084E396E00E94090F1F5FC5CF6E897F8942
:101700004AE050E084E396E00E94040EF5CF6E8933
:1017100070E0F6CF83E991E00C94FD0008951F92EC
:101720000F920FB60F9211242F933F934F935F9315
:101730006F937F938F939F93AF93BF93EF93FF9399
:1017400080912B0690912C06A0912D06B0912E062B
:1017500030912A0623E0230F2D3798F50196A11D1D
:10176000B11D20932A0680932B0690932C06A093FC
:101770002D06B0932E0680912F0690913006A091F1
:101780003106B09132060196A11DB11D80932F063E
:1017900090933006A0933106B09332060E948A0BD4
:1017A000FF91EF91BF91AF919F918F917F916F9139
:1017B0005F914F913F912F910F900FBE0F901F900F
:1017C000189526E8230F0296A11DB11DCACF84B536
:1017D000826084BD84B5816084BD85B5826085BD2D
:1017E00085B5816085BDEEE6F0E080818160808313
:1017F000E1E81082808182608083808181608083C3
:10180000E0E8808181608083E1EB80818460808377
:10181000E0EB808181608083EAE78081846080835F
:101820008081826080838081816080838081806804
:1018300080831092C1000895FFCFFFCFCF93DF9335
:10184000E82FEE0FFF0BE85DFD4FA081B1811496EC
:101850008D919D9101971497ED91FD91E80FF91FDE
:1018600019968C911D97823079F584E890E0892F44
:1018700024E830E020839F0121503109E901888369
:1018800016963D912C911797CF010297EC01388362
:101890000197EC012883069726E0EC0119922A951E
:1018A000E9F7019720E8EC0128830C972CE0EC0184
:1018B00019922A95E9F70D90BC91A02D7797ED9399
:1018C000FD93DF91CF91089580EA90E0892F20EA7F
:1018D00030E0D0CF089578940895F89408957894DE
:1018E0000895F894089508950E94E70B0E94730CE0
:1018F0000E948E0B0E940A0A809133060E940B06FA
:1019000080E090E0089580914C0280933306089522
:1019100008951F920F920FB60F9211242F933F93A9
:101920004F935F936F937F938F939F93AF93BF93E7
:10193000EF93FF93E091B001F091B1010995FF9110
:10194000EF91BF91AF919F918F917F916F915F9137
:101950004F913F912F910F900FBE0F901F901895B0
:101960001F920F920FB60F9211242F933F934F9314
:101970005F936F937F938F939F93AF93BF93EF93F7
:10198000FF93E091B201F091B3010995FF91EF91BE
:10199000BF91AF919F918F917F916F915F914F9187
:1019A0003F912F910F900FBE0F901F9018950F939E
:1019B0001F93CF93DF9300D000D000D0CDB7DEB718
:1019C00089839A834B835C836D837E8300E010E080
:1019D000AB81BC810A171B0761F4C8010F900F90FF
:1019E0000F900F900F900F90DF91CF911F910F915B
:1019F0000895A981BA81ED91FD910190F081E02DCA
:101A0000AD81BE816C9189819A810995892B29F3D9
:101A10008D819E8101968D839E830F5F1F4FD8CF4E
:101A20006115710579F0FB0101900020E9F731970C
:101A3000AF01461B570BDC01ED91FD910280F38154
:101A4000E02D099480E090E008950C94100DDC01E5
:101A5000ED91FD910190F081E02D09946AEE71E025
:101A60000C94100DCF93DF9300D000D0CDB7DEB72C
:101A700089839A830E94100D8B839C8389819A812C
:101A80000E942E0D2B813C81820F931F0F900F908F
:101A90000F900F90DF91CF9108958F929F92AF9208
:101AA000BF92CF92DF92EF92FF920F931F93CF934B
:101AB000DF93CDB7DEB7A3970FB6F894DEBF0FBEA6
:101AC000CDBF8AA39BA3B42EA52E962E872E19A236
:101AD000223008F42AE08E010F5D1F4FC22ED12C58
:101AE000E12CF12C6B2D7A2D892D982D9601A701D3
:101AF0000E9432138B2D9A2DA92DB82DB22EA32E14
:101B0000942E852E6A300CF5605DF80162938F018A
:101B10008C159D05AE05BF0528F7BF018AA19BA1C5
:101B20000E94100DA3960FB6F894DEBF0FBECDBF76
:101B3000DF91CF911F910F91FF90EF90DF90CF90A9
:101B4000BF90AF909F908F900895695CDECFCF9249
:101B5000DF92EF92FF92CF93DF9300D000D0CDB70A
:101B6000DEB78B839C836A017B0121153105A1F4CB
:101B7000DC01ED91FD9112970190F081E02D642F31
:101B8000CD010F900F900F900F90DF91CF91FF90AC
:101B9000EF90DF90CF9009942A30310519F4F7FCCB
:101BA00011C02AE0A601B7018B819C810F900F9094
:101BB0000F900F90DF91CF91FF90EF90DF90CF903B
:101BC0000C944D0D6DE28B819C810E94270D8983C1
:101BD0009A8344275527BA014C195D096E097F097C
:101BE0002AE08B819C810E944D0D29813A81820FD0
:101BF000931F0F900F900F900F90DF91CF91FF9058
:101C0000EF90DF90CF9008959A01AB01770F770B9B
:101C1000672F0C94A70D2115310541F4DC01ED91DE
:101C2000FD910190F081E02D642F09940C944D0DED
:101C30009A01AB0160E070E00C940B0EAF92BF9282
:101C4000CF92DF92EF92FF920F931F93CF93DF9388
:101C500000D000D000D0CDB7DEB78C016A017B0187
:101C6000B22E9A01AB01B601C7010E9419136DEEA5
:101C700071E0811114C0B601C7010E94A21261EF88
:101C800071E0892B61F42FEF3FEF4FE75FE4B6017E
:101C9000C7010E949D121816ACF465EF71E0C801EF
:101CA0000F900F900F900F900F900F90DF91CF91AA
:101CB0001F910F91FF90EF90DF90CF90BF90AF906A
:101CC0000C94100D2FEF3FEF4FE75FECB601C7010B
:101CD0000E943E1187FDE1CF40E050E09A01B6013D
:101CE000C7010E943E1187FF5AC06DE2C8010E94E1
:101CF000270D8D839E83F7FAF094F7F8F094A12CCA
:101D000060E070E080E09FE3BA104CC09601A7014C
:101D10000E94D21069837A838B839C830E94BC11BA
:101D20006B017C012AE0AB01BC01C8010E944D0D92
:101D30002D813E81280F391F2D833E83B114E1F0A0
:101D4000B601C7010E94EB119B01AC0169817A8148
:101D50008B819C810E94D110F62EE72ED82EC92EA1
:101D60006EE2C8010E94270D2D813E81280F391F88
:101D70002D833E83B1101EC08D819E810F900F90E8
:101D80000F900F900F900F90DF91CF911F910F91B7
:101D9000FF90EF90DF90CF90BF90AF9008951D829D
:101DA0001E82ADCF20E030E040E251E40E944311BA
:101DB000A394AACFBA9420E030E040E251E46F2D22
:101DC0007E2D8D2D9C2D0E94AC1269837A838B838E
:101DD0009C830E94BC116B014AE050E0C8010E9444
:101DE000180E2D813E81280F391F2D833E83B601A9
:101DF00080E090E00E94EB119B01AC0169817A8147
:101E00008B819C810E94D110F62EE72ED82EC92EF0
:101E1000B1CF0C941E0E2F932FB72F938F939F93B8
:101E2000EF93FF93E0914406F09145068081E091A5
:101E30004A06F0914B0682FD19C0908180914D06B3
:101E40008F5F8F7320914E06821741F0E0914D060F
:101E5000F0E0EC5CF94F958F80934D06FF91EF9188
:101E60009F918F912F912FBF2F9118958081F6CF41
:101E70001F920F920FB60F9211242F933F934F93FF
:101E80005F936F937F938F939F93AF93BF93EF93E2
:101E9000FF9384E396E00E94BE0FFF91EF91BF9104
:101EA000AF919F918F917F916F915F914F913F91F2
:101EB0002F910F900FBE0F901F901895E4E3F6E05E
:101EC0001282138288EE93E08483958316821782B0
:101ED00081E892E08083918385EC8487158684EC89
:101EE0008687178680EC808B118A81EC828B138A1F
:101EF00082EC848B158A86EC868B178A118E128E63
:101F0000138E148E0895FC01918D228D892F90E0FF
:101F1000805C9F4F821B91098F7390E00895FC01B4
:101F2000918D828D981731F0828DE80FF11D858D8E
:101F300090E008958FEF9FEF0895FC01918D828DC1
:101F4000981761F0A28DAE0FBF2FB11D5D968C91D9
:101F5000928D9F5F9F73928F90E008958FEF9FEF18
:101F60000895FC01238D348D832F90E0821B91090D
:101F7000231710F0CF96089501970895FC01A48DC2
:101F8000A80FB92FB11DA35ABF4F2C91848D019674
:101F90008F73848FA689B7892C93A089B1898C917E
:101FA000837080648C93938D848D981306C002880F
:101FB000F389E02D80818F7D80830895CF93DF9317
:101FC000EC01888D811111C0DF91CF9108950FB67A
:101FD00007FC0DC0808185FF0AC0A889B9898C9152
:101FE00085FF05C0CE010E94BE0FEA89FB89808172
:101FF00085FDEDCFA889B9898C9186FFE8CFE4CF24
:10200000EF92FF920F931F93CF93DF93EC01F62E85
:1020100081E0888F9B8D8C8D98131AC0E889F9898F
:10202000808185FF15C09FB7F894EE89FF89608392
:10203000E889F98980818370806480839FBF81E013
:1020400090E0DF91CF911F910F91FF90EF90089555
:102050000B8D0F5F1F4F0F73E02E8C8D8E1579F057
:10206000EB8DEC0FFD2FF11DE35AFF4FF0829FB770
:10207000F8940B8FEA89FB8980818062DECF0FB6EE
:1020800007FCEBCFE889F989808185FFE6CFCE0197
:102090000E94BE0FE2CFCF92DF92EF92FF92CF93DA
:1020A000DF9300D00F92CDB7DEB78A839B836A019E
:1020B0007B012983DC015096ED91FD9182E08083C4
:1020C000C114B1EEDB06E104F10491F060E079E0C7
:1020D0008DE390E09A01A7010E943213215031094B
:1020E0004109510956954795379527953031B0F0FC
:1020F000AA81BB815096ED91FD91108260E874E851
:102100008EE190E09601A7010E943213215031091F
:10211000410951095695479537952795AA81BB8165
:102120001C96ED91FD913083ED91FD9120831896E1
:102130001C921497ED91FD91B981B083AA81BB8166
:102140005296ED91FD91808180618083FE91EE91A8
:10215000808188608083ED91FD918081806880839B
:10216000FE91EE9180818F7D80830F900F900F9074
:10217000DF91CF91FF90EF90DF90CF900895F8948A
:102180000C946E13FB01DC014150504048F001906B
:102190000D920020C9F701C01D9241505040E0F758
:1021A00008955058BB27AA270E94E9100C94631287
:1021B0000E94551238F00E945C1220F039F49F3FC3
:1021C00019F426F40C9452120EF4E095E7FB0C94EB
:1021D0004C12E92F0E94741258F3BA176207730762
:1021E0008407950720F079F4A6F50C9496120EF466
:1021F000E0950B2EBA2FA02D0B01B90190010C0117
:10220000CA01A0011124FF27591B99F0593F50F42E
:10221000503E68F11A16F040A22F232F342F442786
:10222000585FF3CF469537952795A795F04053957E
:10223000C9F77EF41F16BA0B620B730B840BBAF04E
:102240009150A1F0FF0FBB1F661F771F881FC2F7B9
:102250000EC0BA0F621F731F841F48F487957795CD
:102260006795B795F7959E3F08F0B0CF9395880F87
:1022700008F09927EE0F9795879508950E942812E8
:1022800008F481E008950E9457110C9463120E9493
:102290005C1258F00E94551240F029F45F3F29F07B
:1022A0000C944C1251110C9497120C9452120E94DF
:1022B000741268F39923B1F3552391F3951B550BD1
:1022C000BB27AA2762177307840738F09F5F5F4F09
:1022D000220F331F441FAA1FA9F335D00E2E3AF048
:1022E000E0E832D091505040E695001CCAF72BD060
:1022F000FE2F29D0660F771F881FBB1F26173707B1
:102300004807AB07B0E809F0BB0B802DBF01FF27E2
:1023100093585F4F3AF09E3F510578F00C944C1261
:102320000C9497125F3FE4F3983ED4F3869577952B
:102330006795B795F7959F5FC9F7880F911D96959B
:10234000879597F90895E1E0660F771F881FBB1FF7
:10235000621773078407BA0720F0621B730B840BA4
:10236000BA0BEE1F88F7E09508950E94BC1168949F
:10237000B1110C94971208950E947C1288F09F5717
:1023800098F0B92F9927B751B0F0E1F0660F771F99
:10239000881F991F1AF0BA95C9F714C0B13091F08F
:1023A0000E949612B1E008950C949612672F782F30
:1023B0008827B85F39F0B93FCCF386957795679554
:1023C000B395D9F73EF490958095709561957F4FC0
:1023D0008F4F9F4F0895E89409C097FB3EF4909566
:1023E0008095709561957F4F8F4F9F4F9923A9F0EE
:1023F000F92F96E9BB279395F6958795779567957D
:10240000B795F111F8CFFAF4BB0F11F460FF1BC0C0
:102410006F5F7F4F8F4F9F4F16C0882311F096E953
:1024200011C0772321F09EE8872F762F05C0662301
:1024300071F096E8862F70E060E02AF09A95660FBA
:10244000771F881FDAF7880F9695879597F9089573
:10245000990F0008550FAA0BE0E8FEEF16161706B5
:10246000E807F907C0F012161306E407F50798F01D
:10247000621B730B840B950B39F40A2661F0232B36
:10248000242B252B21F408950A2609F4A140A695B2
:102490008FEF811D811D089597F99F6780E870E097
:1024A00060E008959FEF80EC089500240A941616CA
:1024B000170618060906089500240A941216130632
:1024C000140605060895092E0394000C11F48823C0
:1024D00052F0BB0F40F4BF2B11F460FF04C06F5FDC
:1024E0007F4F8F4F9F4F089557FD9058440F551FB2
:1024F00059F05F3F71F04795880F97FB991F61F086
:102500009F3F79F087950895121613061406551FFC
:10251000F2CF4695F1DF08C0161617061806991F68
:10252000F1CF86957105610508940895E894BB275D
:1025300066277727CB0197F908950E94281208F49F
:102540008FEF08950E947C1280E090E020F419F44F
:102550000EF40297839508950E94BF120C946312A3
:102560000E94551238F00E945C1220F0952311F061
:102570000C944C120C94521211240C9497120E9439
:10258000741270F3959FC1F3950F50E0551F629F31
:10259000F001729FBB27F00DB11D639FAA27F00DBC
:1025A000B11DAA1F649F6627B00DA11D661F829FE3
:1025B0002227B00DA11D621F739FB00DA11D621FC8
:1025C000839FA00D611D221F749F3327A00D611DE5
:1025D000231F849F600D211D822F762F6A2F1124C7
:1025E0009F5750409AF0F1F088234AF0EE0FFF1FFA
:1025F000BB1F661F771F881F91505040A9F79E3F51
:10260000510580F00C944C120C9497125F3FE4F348
:10261000983ED4F3869577956795B795F795E795A6
:102620009F5FC1F7FE2B880F911D9695879597F9AF
:1026300008950E942812880B990B089597FB072E86
:1026400016F4009407D077FD09D00E94541307FCBC
:1026500005D03EF4909581959F4F089570956195B2
:102660007F4F0895A1E21A2EAA1BBB1BFD010DC0CE
:10267000AA1FBB1FEE1FFF1FA217B307E407F50732
:1026800020F0A21BB30BE40BF50B661F771F881F0E
:10269000991F1A9469F760957095809590959B01A4
:1026A000AC01BD01CF010895AA1BBB1B51E107C0BE
:1026B000AA1FBB1FA617B70710F0A61BB70B881FD2
:1026C000991F5A95A9F780959095BC01CD01089561
:1026D000EE0FFF1F0590F491E02D0994F894FFCFC1
:1026E00000000000000000000000000000000000EA
:1026F00000000000000000000000000000000000DA
:1027000000000000000000000000000000000000C9
:1027100000000000000000000000000000000000B9
:1027200000000000000000000000000000000000A9
:102730000000000000000000000000000000000099
:102740000000000000000000FF0088424600003A40
:10275000020000D305FFFFFFFFFFFFFFFF00001B8C
:102760000200000000320000003200000002000001
:1027700000010001000000FFFF0000010000000058
:1027800000000000000000000000000200FF000048
:10279000880C880CFF5B4F646F2F41766753706421
:1027A00020546573745D2064697374616E63652081
:1027B0002B2061766753706565640073706565648E
:1027C0000064697374616E6365000D0A006E616E6A
:1027D00000696E66006F7666000000000000007001
:1027E000420000F04200007042000000000000B40F
:1027F00042000016430000B4427F01930195082176
:1028000002F805008E01D3052C023A02D104D3044C
:1028100000011B0A000000010100D805DA05500084
:102820001C0C000001000100AB010100001307E1D6
:1028300006EA06C306700460065D0489066807019F
:102840000609062C08520765087F079E08CE07DF99
:1028500008FC052F09A807A109E909F007000000F5
:10286000000010D70CB10FDE0F830F9D0F8F0F00EC
:00000001FF
