:100000000C9436000C94B50D0C94DC0D0C945E0031
:100010000C945E000C945E000C945E000C945E00E8
:100020000C945E000C945E000C945E000C945E00D8
:100030000C945E000C945E000C945E000C945E00C8
:100040000C94BB0C0C945E000C9459100C9486100C
:100050000C945E000C945E000C945E000C945E00A8
:100060000C945E000C945E00AF0DAC1011241FBE0A
:10007000CFEFD8E0DEBFCDBF12E0A0E0B1E0EAE60E
:10008000F9E202C005900D92A23BB107D9F726E034
:10009000A2EBB2E001C01D92A538B207E1F710E073
:1000A000C6E3D0E004C02197FE010E94AD14C43322
:1000B000D107C9F70E94A00D0C942B120C940000DC
:1000C000E2E10E9405010895E9E00E94050108951A
:1000D000EAE00E9405010895E1E00E94050108950B
:1000E000E3E00E9405010895E7E00E9405010895FC
:1000F000E5E00E9405010895E0E00E9405010895F1
:10010000E2E00E9405010895E4E00E9405010895DF
:10011000ECE00E9405010895E8E00E9405010895C1
:10012000EEE00E9405010895E4E10E9405010895B2
:10013000E0E10E9405010895E7E10E9405010895AC
:10014000E6E00E9405010895EBE00E940501089594
:10015000EDE00E9405010895EFE00E940501089579
:10016000E1E10E9405010895E3E10E94050108957F
:10017000E5E10E9405010895E6E10E940501089568
:1001800021968A929A92AA92BA92CA92DA92EA92A4
:10019000FA920A931A932197E0916901F0916A010A
:1001A0000080F181E02DC083D1830895C0916B015F
:1001B000D0916C01E881F981C081D181219619919A
:1001C0000991F990E990D990C990B990A990999026
:1001D0008990219708952F903F90E7E6F1E0CDB701
:1001E000DEB7EDBFFEBF3F922F9208952F903F9054
:1001F000CDBFDEBF3F922F920895E0E80E94050137
:100200000895E0E40E94050108952F923F924F92D5
:100210005F926F927F922FB62F92CF93DF937E2EB5
:10022000F894E0910001EF5FE0930001E13011F4F8
:100230000E94EB00E0E0E0937901E72DE07849F0DF
:100240000E943A05F0917A01F17071F00E94D60394
:100250000BC0E72DEC3140F4EE0FF0E0E159FD4F1B
:100260000190F081E02D0995F0917901EF2FE17077
:1002700059F0F27011F00E94C0008F938F2F0E94EE
:100280001B038F910E94D6002091000121502093E2
:100290000001222311F40E94F600DF91CF912F90EC
:1002A0002FBE7F906F905F904F903F902F9008955A
:1002B000FC014081FB013081842F877090E0A0E039
:1002C000B0E0B695A7959795879584589B4FFC010C
:1002D0002081F42FF21B2F2F21704670242B832FA7
:1002E000877090E0A0E0B0E0B695A79597958795C8
:1002F00084589B4FFC019081F32FF91B9F2F917025
:100300003670932B41E050E0291708F040E0CA0115
:1003100008958F929F92AF92BF92EF92FF920F93A8
:100320001F93CF93DF937C014A015B01B694A7949E
:1003300097948794423051056105710580F08A01D8
:10034000000F111F0E0D1F1DE401CC0FDD1FCE0D80
:10035000DF1DB801CE010E945801892B59F4DF91AD
:10036000CF911F910F91FF90EF90BF90AF909F9012
:100370008F900895F80190818181288139812083AF
:10038000318398838983A401B501D0CF7F928F9266
:100390009F92AF92BF92CF92DF92EF92FF920F9314
:1003A0001F93CF93DF938C014A015B01FC017080A6
:1003B00064017501CC0CDD1CEE1CFF1C7C141D04BB
:1003C0001E041F0470F4DF91CF911F910F91FF90D5
:1003D000EF90DF90CF90BF90AF909F908F907F90E5
:1003E0000895C601D7010196A11DB11D7816190601
:1003F0001A061B0698F0BC01660F771F600F711F6D
:10040000C601880F991F800F911F0E945801092E65
:10041000000C0008C80ED91EE01CF01CE601CC0F31
:10042000DD1FC00FD11F880C991C800E911EBE01CC
:10043000C4010E945801892B31F2F401908181811D
:10044000288139812083318398838983460157012C
:10045000AFCF40917F044F5F40937F0450E060E056
:1004600070E0E82FEE0FFF0BE65BFD4F0190F0818F
:10047000E02D2385E22FF0E0E458FB4F908191506E
:100480009083FA01EE0FFF1FE158FB4F9170220F8E
:10049000922B908381838FE794E00C9489014091A3
:1004A0007F044F5F40937F0450E060E070E0FA010A
:1004B000EE0FFF1FE158FB4FA82FAA0FBB0BAA5B43
:1004C000BD4F0D90BC91A02D13969C91908381837C
:1004D0008FE794E00C948901CF93DF9300D0CDB7E0
:1004E000DEB780917F049FEF980F90937F049091E7
:1004F00081049A8390918204998390E0880F991FD8
:10050000FC01E158FB4F808191818093810490939D
:10051000820441E050E060E070E08FE794E00E94E8
:10052000C6018A8199810F900F90DF91CF91089534
:100530008091B202811115C04091710150917201F8
:1005400060917301709174014F3F54076407740701
:1005500051F081E0141615061606170624F482E001
:10056000089584E008950895CF93DF93880F990B41
:10057000FC01E65BFD4F0190F081E02D0084F185E8
:10058000E02D3097C9F02281211116C021E022838D
:100590008A5B9D4FEC01A881B98113968C91818370
:1005A0009081E92FF0E0E458FB4F808181508083F7
:1005B0008170990F892B8C93DF91CF910895CF9300
:1005C000DF93880F990BFC01E65BFD4F0190F081F2
:1005D000E02D0084F185E02D309761F022812130FB
:1005E00049F412828A5B9D4FEC01A881B981818117
:1005F00013968C93DF91CF9108958091750190911E
:100600007601A0917701B0917801409171015091EC
:1006100072016091730170917401481759076A075C
:100620007B0741F0E0916F01F091700121E024839C
:100630000C944F020895CF93DF93C0E0D0E0811572
:1006400089F0C0916901D0916A01E0916D01F0914A
:100650006E018481833031F081E084838091710167
:100660000E944F02E0916F01F0917001E0936D01E3
:10067000F0936E0180916B0190916C018093690100
:1006800090936A01809175013091760120917701F4
:1006900090917801809371013093720120937301DE
:1006A0009093740192E094830E94B402CE01DF9192
:1006B000CF910895809171010E94DF02E0916D0158
:1006C000F0916E018281811185E084830895CF933A
:1006D000DF93282F220F330BF901EA5BFD4FC08116
:1006E000D1819A81265B3D4FD901ED91FD91248501
:1006F000921780F4911105C095E09C8391E090934E
:100700007A010E9429028A818F5F8A8380E0DF91CB
:10071000CF91089584E0FBCFE82FEE0FFF0BEA5B4B
:10072000FD4F0190F081E02D108211820C944A0D52
:10073000CF93DF9300D00F92CDB7DEB70E946C024B
:100740008983892F592F550F550B9093750150931D
:1007500076015093770150937801292F220F330BA4
:10076000F901EA5BFD4F408151814A835B834093ED
:100770006F0150937001265B3D4FF901208131815B
:1007800020936B0130936C01FA019481953031F420
:100790000E948C034981EA81FB81438310927A0194
:1007A0000F900F900F90DF91CF910895E091750118
:1007B000F0917601EE0FFF1FEA5BFD4F0190F08193
:1007C000E02D809181049381981740F40E94FD02EE
:1007D0000E94980383E080937901089580E0FBCF25
:1007E00081E0809379010C9498030F931F93CF932A
:1007F000DF93C1E001C0CC0F8A95EAF720914C024B
:1008000030914D02809148029091490210927F04EC
:100810001092690110926A0120936B0130936C0170
:1008200010926D0110926E0180936F019093700190
:10083000AFEFBFEFCD018093710190937201A09350
:100840007301B09374018093750190937601A09326
:100850007701B09378011092790110927A0181E0CA
:100860000E94670320E030E0D0916D02DC23211567
:10087000310559F020E030E080916C02C8230091EE
:100880003B0210913C02D1E011C0D115A9F380E0E8
:100890000E94670321E030E0EACFC11549F0F8017A
:1008A000D687C8010E94870421E030E0232BA9F3FA
:1008B000DF91CF911F910F9108950E941D06811124
:1008C0000E943D06E0916D01F0916E018081918161
:1008D000892B21F0809171010E9411080C94680706
:1008E0000E941D0681110E943D06E0916D01F0916C
:1008F0006E0180819181892B21F0809171010E948C
:1009000011080C944D0781E08093B3020895CF92B3
:10091000DF92EF92FF920F931F93CF93DF93FC012F
:10092000A081B1810D90BC91A02D54962D913D9147
:1009300056972115310509F441C0428553856485D8
:10094000758500E010E0E901CA84DB84EC84FD8455
:100950004C155D056E057F0508F042C0C901828314
:10096000938304831583009719F0EC01EC83FD83D6
:1009700001151105F1F1E801EA83FB835696CD914B
:10098000DD910A851B852C853D851897CD90DD90DE
:10099000ED90FD9054970C151D052E053F0570F543
:1009A000C416D506E606F70628F040175107620779
:1009B000730768F45696ED93FD9309C054968D9392
:1009C000FD938D93FD931482158212821382DF9121
:1009D000CF911F910F91FF90EF90DF90CF900895EE
:1009E000E9018A819B818901009709F4B8CF9C01B4
:1009F000AACF5496ED93FD935697C0CFC416D50653
:100A0000E606F70620F7D1CFCF93DF93DC01ED9117
:100A1000FD9112970190F081E02D12960D90BC91FE
:100A2000A02D248935892817390711F4A48BB58B9B
:100A3000268937892817390719F4A68BB78B9D01AA
:100A4000109739F0EC014C815D8114964D935D93C4
:100A50001697EC018C819D81009719F0EC01AA8317
:100A6000BB83232B21F484899589868B978BDF9117
:100A7000CF910895EF92FF920F931F93CF93DF933F
:100A8000EC018091B302811509F4A7C08C859D8586
:100A9000AE85BF850196A11DB11D8C879D87AE8750
:100AA000BF87488159816A817B8184179507A60792
:100AB000B70709F092C088899989AA89BB890196EC
:100AC000A11DB11D4C815D816E817F814817590741
:100AD0006A077B0718F4A0E0B0E0CD01888B998B02
:100AE000AA8BBB8B1C861D861E861F860E891F89BE
:100AF0000115110509F471C0F8014285538564851B
:100B00007585481759076A077B0709F066C09F017A
:100B10000280F381E02D309749F04285538564854A
:100B2000758584179507A607B70789F3D80114962A
:100B30008D919D91009721F0DC011296ED93FD932C
:100B4000309711F0848395838C899D890817190744
:100B500011F4EC8BFD8B309711F4EC89FD89EE8B51
:100B6000FF8BF901128213827801D80112960D9140
:100B70001D911497ED91FD910280F381E02DC70145
:100B80000995F70186819781A085B18510979040DE
:100B9000804051F14285538564857585840F951F8A
:100BA000A61FB71F4C815D816E817F814817590751
:100BB0006A077B0738F4841B950BA60BB70B0197CC
:100BC000A109B109F70182879387A487B587C70177
:100BD0000E9487040115110539F6DF91CF911F910D
:100BE0000F91FF90EF900895D7011E961C92F2CFBF
:100BF000FC0182810C9467030E941D0680916801AC
:100C00000895809368010E94F5030E9483040C9468
:100C1000F0030C94490DCF93DF930F92CDB7DEB75D
:100C200089830E949802811102C00E94960D8981D9
:100C30000F90DF91CF910C9464002091C00221307D
:100C4000D1F04091B8025091B9026091BA0270910E
:100C5000BB028091BC029091BD02A091BE02B091F6
:100C6000BF02842B952BA62BB72B21E0892B8A2B37
:100C70008B2B09F420E0822F08951092C00210926D
:100C8000BC021092BD021092BE021092BF021092DE
:100C9000B8021092B9021092BA021092BB0280916F
:100CA000B4029091B502A091B602B091B7028093C0
:100CB000C1029093C202A093C302B093C4020895EC
:100CC0000E94990D8091C1029091C202A091C3022D
:100CD000B091C4020196A11DB11D8093C1029093F1
:100CE000C202A093C302B093C4028091BC0290914F
:100CF000BD02A091BE02B091BF020196A11DB11D1F
:100D00008093BC029093BD02A093BE02B093BF0239
:100D100008958091BC029091BD02A091BE02B09155
:100D2000BF0210979040804069F14091C1025091FC
:100D3000C2026091C3027091C4024150510961091D
:100D400071094093C1025093C2026093C302709331
:100D5000C4020197A109B1098093BC029093BD021E
:100D6000A093BE02B093BF028091C1029091C202D3
:100D7000A091C302B091C402892B8A2B8B2B11F452
:100D80000C94970D08958091BC029091BD02A091A2
:100D9000BE02B091BF024091B8025091B902609179
:100DA000BA027091BB02842B952BA62BB72B892BF3
:100DB0008A2B8B2B29F40E94990D81E08093C0022D
:100DC00008958091C002811521F01092C0020C9408
:100DD000970D08950E949D0D8091C1029091C202CD
:100DE000A091C302B091C4020196A11DB11D8093D0
:100DF000C1029093C202A093C302B093C402809137
:100E0000B8029091B902A091BA02B091BB020196CA
:100E1000A11DB11D8093B8029093B902A093BA02AC
:100E2000B093BB0208958091B8029091B902A0914D
:100E3000BA02B091BB0210979040804069F1409196
:100E4000C1025091C2026091C3027091C40241502C
:100E50005109610971094093C1025093C202609324
:100E6000C3027093C4020197A109B1098093B8022B
:100E70009093B902A093BA02B093BB028091C102D1
:100E80009091C202A091C302B091C402892B8A2B17
:100E90008B2B11F40C949B0D08950E941D0681115B
:100EA00083E10895CF93DF930F92CDB7DEB78983A7
:100EB0000E941D0689810E946703898380917A01BF
:100EC00081110E94D60389810F90DF91CF910895FF
:100ED000CF930E941D06C82F8111C3E1E0916D01DF
:100EE000F0916E018281815082830E945A0381E0D9
:100EF000809379010E9498038C2FCF910895CF930E
:100F0000DF930F92CDB7DEB789830E941D06E09173
:100F10006D01F0916E0182818150828389810E94EE
:100F20006703898381110CC00E945A0381E080937A
:100F300079010E94980389810F90DF91CF910895E4
:100F4000E0916D01F0916E0182818F5F8283F3CF1A
:100F5000CF930E941D06C82F8111C3E180917101BA
:100F60000E94DF020E94D60380917101909172016C
:100F7000A0917301B0917401409175015091760177
:100F8000609177017091780184179507A607B707DC
:100F900011F40E94B4028C2FCF910895CF93DF9368
:100FA00000D0CDB7DEB789839A830E941D068111D8
:100FB00083E14091710150917201609173017091D0
:100FC0007401141615061606170614F44091B001A4
:100FD000E981FA8140830F900F90DF91CF910895BE
:100FE000CF93DF9300D00F92CDB7DEB789836A83AA
:100FF0007B830E941D06811183E19981E92FEE0F09
:10100000FF0BEA5BFD4F0190F081E02D948193701E
:10101000EA81FB8190830F900F900F90DF91CF9129
:101020000895E82FEE0FFF0BEA5BFD4FA081B18121
:10103000ED91FD911297309771F01D921D92809164
:10104000B001DF010380F481E02D12968D931D9293
:101050001D923097B1F70895CF93DF930F92CDB7DC
:10106000DEB789830E941D06811183E19981E92FF2
:10107000F0E0EE0FFF1FE659FD4F0190F081E02DEB
:10108000909171019283A0916D01B0916E012D91AB
:101090003D9123833483FE93EE9313962C91139703
:1010A000218390812695291760F4E92FF0E0E45818
:1010B000FB4F208121502083990F2170922B139692
:1010C0009C930F90DF91CF910895CF93DF9300D041
:1010D000CDB7DEB789830E941D068A83811511F082
:1010E00083E18A838981E82FF0E0EE0FFF1FE65944
:1010F000FD4F0190F081E02DA0916D01B0916E0146
:10110000818113968C931397838194818D939D9302
:10111000138214828091B00182830E94D6038A8157
:101120000F900F90DF91CF910895DC01ED91FD912B
:1011300084819581DC01ED91FD910994CF93DF933A
:1011400000D00F92CDB7DEB789836A837B830E947C
:101150001D06811183E19981E92FF0E0EE0FFF1F59
:10116000E55CFD4F0190F081E02D0190F081E02DD4
:101170000190F081E02D4081518162817381AA81CB
:10118000BB8114964D935D936D937D931897448125
:101190005581668177814D935D936D937D9314970F
:1011A0004085518562857385FD014087518762873F
:1011B00073870F900F900F90DF91CF910895CF928A
:1011C000DF92EF92FF920F931F93CF93DF9300D0A4
:1011D000CDB7DEB7182F69837A830E941D0681116F
:1011E00083E1E12FF0E0EE0FFF1FE55CFD4F019082
:1011F000F081E02D9685913081F542855385648597
:1012000075850190F081E02D0190F081E02D00893D
:10121000118922893389401751076207730740F407
:10122000C480D580E680F7804C0D5D1D6E1D7F1D4E
:10123000401B510B620B730BE981FA814083518390
:10124000628373830F900F90DF91CF911F910F9165
:10125000FF90EF90DF90CF90089585E0F3CFAF92AD
:10126000BF92CF92DF92EF92FF920F931F93CF9393
:10127000DF9300D000D000D0CDB7DEB789834A839A
:101280005B836C837D83780189010E941D068E83B8
:10129000811511F083E18E83A980EA2DF0E0EE0F35
:1012A000FF1FE55CFD4F0190F081E02D86858111E7
:1012B00045C0A081B1810D90BC91A02D50964D915B
:1012C0005D916D917D915497AA80BB80CC80DD802B
:1012D0004A0D5B1D6C1D7D1D14968D919D910D9089
:1012E000BC91A02D84179507A607B70740F4481BAB
:1012F000590B6A0B7B0B41505109610971094287F7
:10130000538764877587E682F7820087118781E0BB
:101310008687CF010E9487048E810F900F900F90D7
:101320000F900F900F90DF91CF911F910F91FF9031
:10133000EF90DF90CF90BF90AF90089587E08E83BD
:10134000EBCFEF92FF920F931F93CF93DF9300D0D9
:1013500000D000D0CDB7DEB789834A835B836C832E
:101360007D83780189010E941D068E83811511F00D
:1013700083E18E839981E92FF0E0EE0FFF1FE55C9A
:10138000FD4F0190F081E02D868581111FC08A817B
:101390009B81AC81BD8182879387A487B587E682D4
:1013A000F7820087118781E08687CF010E9487043A
:1013B0008E810F900F900F900F900F900F90DF91F4
:1013C000CF911F910F91FF90EF90089597E09E832A
:1013D000EFCF0F931F93CF93182F0E941D06C82F96
:1013E0008111C3E1E12FF0E0EE0FFF1FE55CFD4F3F
:1013F00000811181F8018685813051F4C8010E9475
:101400000405F80116868C2FCF911F910F91089536
:10141000C5E0F9CF26E040E052EC61E070E088EEF4
:1014200095E00E9499110E94EA0B0E94550B61EB16
:1014300071E088EE95E00C945E0EEF92FF920F93B0
:101440001F93CF93DF9300D000D00F92CDB7DEB7BC
:101450000E94530C80E00E94090CE82E11E08111DB
:1014600001C010E081E00E94090CF82E81E08D831C
:10147000F11001C01D8282E00E94090C082F81E05A
:101480008983011101C0198283E00E94090C21E0C7
:10149000811101C020E0E11451F09091C802911136
:1014A00006C09091CC0231E093279093CC02F114C6
:1014B00051F09091C702911106C09091CB0231E09A
:1014C00093279093CB02011551F09091C602911190
:1014D00006C09091CA0231E093279093CA02811509
:1014E00051F08091C502811106C08091C90291E03E
:1014F00089278093C9021093C8028D818093C70207
:1015000089818093C6022093C5026091CC026195C7
:1015100080E00E94210C6091CB02619581E00E94E5
:10152000210C6091CA02619582E00E94210C6091B9
:10153000C902619583E00E94210C80E00E94130C97
:10154000BC01990F990B892F0E945A1320E030E0BB
:1015500048E453E40E94191420E030EC4FE754E4CF
:101560000E94B71269837A838B839C8381E00E94F7
:10157000130CBC01990F990B892F0E945A1320E07C
:1015800030E04AEF55E40E94191420E030EC4FE7B8
:1015900054E40E94B7127B018C0149815A816B810E
:1015A0007C8181EF91E00E94770BA701B8018DEE5D
:1015B00091E00E94770B6091CC0287EF91E00E944E
:1015C0007A0B6091CB028EEF91E00E947A0B60E083
:1015D00085E092E00E947A0B60E08CE092E00E944D
:1015E0007A0B6091CA0283E192E00E947A0B6091CB
:1015F000C90288E192E00E947A0B6091CC026111ED
:101600000AC06091CB02611106C06091CA026111EB
:1016100002C06091C9028EE192E00E947A0B0E94A2
:10162000960B0F900F900F900F900F90DF91CF912E
:101630001F910F91FF90EF900C948C00CF92DF924E
:10164000EF92FF920F931F93CF936B01C091CD0246
:10165000C03118F529E1C29F80011124F801E2533D
:10166000FD4F7F0141E150E0BC01CF010E942E12ED
:10167000F701118AF60182899389F701828B938B96
:10168000D801AE51BD4F85E0F601749601900D92E0
:101690008A95E1F7CF5FC093CD02CF911F910F9153
:1016A000FF90EF90DF90CF9008951092CD020895B3
:1016B000CF93DF93CDB7DEB769970FB6F894DEBF4F
:1016C0000FBECDBF1B8A1C8A4D8B5E8B6F8B788FB4
:1016D000298FBE016F5F7F4F0E941E0B69960FB668
:1016E000F894DEBF0FBECDBFDF91CF91089521E00A
:1016F0000C94580BCF93DF93CDB7DEB769970FB635
:10170000F894DEBF0FBECDBF22E02B8B1C8A6D8B01
:10171000BE016F5F7F4F0E941E0B69960FB6F89453
:10172000DEBF0FBECDBFDF91CF9108951F93CF9342
:10173000DF938091CD02811581F064E288EE95E01F
:101740000E94530E10E08091CD02181750F088EEE1
:1017500095E00E945A0E1092CD02DF91CF911F9119
:101760000895111529F06CE288EE95E00E94530E61
:1017700089E1189FE0011124C253DD4FBE0188EEBC
:1017800095E00E94510E6AE388EE95E00E94530EA8
:101790008A899B898130910589F082309105B9F061
:1017A000892B51F4288D30E04C895D896E897F89C1
:1017B00088EE95E00E9457101F5FC5CF6C897D8928
:1017C0004AE050E088EE95E00E94300FF5CF6C893A
:1017D00070E0F6CF109278041092790410927A0497
:1017E00010927B0410927404109275041092760487
:1017F000109277048FEF809370048093710480932C
:1018000072048093730410925F0481E080935E04FD
:101810000895843030F4E82FF0E0E858FB4F8081E1
:10182000089580E00895823048F4E82FF0E0EE0F4C
:10183000FF1FEC58FB4F80819181089580E090E07C
:1018400008951F93CF93DF93162F843040F5C82F50
:10185000D0E0FE01E059FB4F8081861701F16083E3
:1018600067E272E088EE95E00E94510EBE016F5F64
:101870007F4F4AE050E088EE95E00E94300F6AE228
:1018800072E088EE95E00E94510E4AE050E0612F30
:1018900088EE95E0DF91CF911F910C944B0FDF9173
:1018A000CF911F910895CF93DF9380915E048111B2
:1018B00034C0DF91CF91089588EE95E00E94EB103F
:1018C000E0915F048A3019F08D3009F044C0E115D1
:1018D00021F1F0E0E05AFB4F1082809160048132E8
:1018E000D1F4809163048A33B1F4D0916104C09142
:1018F0006204C15384E694E00E940D12D234A9F42C
:10190000C43048F4EC2FF0E0E858FB4F21E0892B7D
:1019100009F420E0208310925F0488EE95E00E9495
:10192000D1101816190644F2C4CFD035A1F7C23031
:1019300090F7EC2FF0E0EE0FFF1FEC58FB4F9430C8
:101940002CF08FEF93E080839183E5CF97FFFBCF5F
:1019500080E090E0F8CFEF3000F791E09E0F909399
:101960005F04F0E0E05AFB4F8083D7CF8FE891E02F
:101970000C94FD0008951F920F920FB60F92112440
:101980002F933F934F935F936F937F938F939F9387
:10199000AF93BF93EF93FF938091DF059091E005A4
:1019A000A091E105B091E2053091DE0523E0230F1F
:1019B0002D3798F50196A11DB11D2093DE0580936A
:1019C000DF059093E005A093E105B093E2058091D7
:1019D000E3059091E405A091E505B091E605019637
:1019E000A11DB11D8093E3059093E405A093E50547
:1019F000B093E6050E94B60CFF91EF91BF91AF91B5
:101A00009F918F917F916F915F914F913F912F9116
:101A10000F900FBE0F901F90189526E8230F029687
:101A2000A11DB11DCACF84B5826084BD84B581601B
:101A300084BD85B5826085BD85B5816085BDEEE6D6
:101A4000F0E0808181608083E1E8108280818260A3
:101A50008083808181608083E0E8808181608083F1
:101A6000E1EB808184608083E0EB80818160808312
:101A7000EAE78081846080838081826080838081C6
:101A8000816080838081806880831092C100089586
:101A9000FFCFFFCFCF93DF93E82FEE0FFF0BE65B77
:101AA000FD4FA081B18114968D919D91019714975E
:101AB000ED91FD91E80FF91F19968C911D978230D9
:101AC00079F584E890E0892F24E830E020839F01B5
:101AD00021503109E901888316963D912C91179781
:101AE000CF010297EC0138830197EC012883069718
:101AF00026E0EC0119922A95E9F7019720E8EC011C
:101B000028830C972CE0EC0119922A95E9F70D90A7
:101B1000BC91A02D7797ED93FD93DF91CF91089520
:101B200080EA90E0892F20EA30E0D0CF08957894C1
:101B30000895F894089578940895F8940895089570
:101B40000E94130D0E949F0D0E94BA0C0E940A0A67
:101B50008091E7050E940B0680E090E00895809157
:101B60006E028093E705089508951F920F920FB6B5
:101B70000F9211242F933F934F935F936F937F9313
:101B80008F939F93AF93BF93EF93FF93E091AC013B
:101B9000F091AD010995FF91EF91BF91AF919F91A8
:101BA0008F917F916F915F914F913F912F910F9006
:101BB0000FBE0F901F9018951F920F920FB60F92A5
:101BC00011242F933F934F935F936F937F938F9342
:101BD0009F93AF93BF93EF93FF93E091AE01F0918A
:101BE000AF010995FF91EF91BF91AF919F918F91B7
:101BF0007F916F915F914F913F912F910F900FBE09
:101C00000F901F9018950F931F93CF93DF9300D0E1
:101C100000D000D0CDB7DEB789839A834B835C8335
:101C20006D837E8300E010E0AB81BC810A171B0747
:101C300061F4C8010F900F900F900F900F900F90CC
:101C4000DF91CF911F910F910895A981BA81ED91F4
:101C5000FD910190F081E02DAD81BE816C91898173
:101C60009A810995892B29F38D819E8101968D8317
:101C70009E830F5F1F4FD8CF6115710579F0FB016F
:101C800001900020E9F73197AF01461B570BDC01AB
:101C9000ED91FD910280F381E02D099480E090E0C8
:101CA00008950C943C0EDC01ED91FD910190F081C2
:101CB000E02D09946CE272E00C943C0ECF93DF931C
:101CC00000D000D0CDB7DEB789839A830E943C0E46
:101CD0008B839C8389819A810E945A0E2B813C813F
:101CE000820F931F0F900F900F900F90DF91CF9165
:101CF00008958F929F92AF92BF92CF92DF92EF9210
:101D0000FF920F931F93CF93DF93CDB7DEB7A397C7
:101D10000FB6F894DEBF0FBECDBF8AA39BA3B42E2F
:101D2000A52E962E872E19A2223008F42AE08E01C5
:101D30000F5D1F4FC22ED12CE12CF12C6B2D7A2D73
:101D4000892D982D9601A7010E948B148B2D9A2D19
:101D5000A92DB82DB22EA32E942E852E6A300CF507
:101D6000605DF80162938F018C159D05AE05BF057E
:101D700028F7BF018AA19BA10E943C0EA3960FB633
:101D8000F894DEBF0FBECDBFDF91CF911F910F91B1
:101D9000FF90EF90DF90CF90BF90AF909F908F908B
:101DA0000895695CDECFCF92DF92EF92FF92CF93DE
:101DB000DF9300D000D0CDB7DEB78B839C836A0160
:101DC0007B0121153105A1F4DC01ED91FD91129704
:101DD0000190F081E02D642FCD010F900F900F90B6
:101DE0000F90DF91CF91FF90EF90DF90CF9009940B
:101DF0002A30310519F4F7FC11C02AE0A601B70119
:101E00008B819C810F900F900F900F90DF91CF915D
:101E1000FF90EF90DF90CF900C94790E6DE28B8164
:101E20009C810E94530E89839A8344275527BA01C7
:101E30004C195D096E097F092AE08B819C810E9403
:101E4000790E29813A81820F931F0F900F900F9086
:101E50000F90DF91CF91FF90EF90DF90CF9008959A
:101E60009A01AB01770F770B672F0C94D30E2115D6
:101E7000310541F4DC01ED91FD910190F081E02DFF
:101E8000642F09940C94790E9A01462F50E060E07B
:101E900070E00C94370FCF93DF9300D000D0CDB714
:101EA000DEB789839A830E94440F8B839C83898148
:101EB0009A810E945A0E2B813C81820F931F0F90B2
:101EC0000F900F900F90DF91CF9108959A01AB0181
:101ED00060E070E00C94370FAF92BF92CF92DF9228
:101EE000EF92FF920F931F93CF93DF9300D000D018
:101EF00000D0CDB7DEB78C016A017B01B22E9A010A
:101F0000AB01B601C7010E9486146FE272E0811135
:101F100014C0B601C7010E940F1463E372E0892B5D
:101F200061F42FEF3FEF4FE75FE4B601C7010E9476
:101F30000A141816ACF467E372E0C8010F900F9012
:101F40000F900F900F900F90DF91CF911F910F91F5
:101F5000FF90EF90DF90CF90BF90AF900C943C0E2D
:101F60002FEF3FEF4FE75FECB601C7010E94B212BF
:101F700087FDE1CF40E050E09A01B601C7010E9421
:101F8000B21287FF5AC06DE2C8010E94530E8D83C2
:101F90009E83F7FAF094F7F8F094A12C60E070E0DB
:101FA00080E09FE3BA104CC09601A7010E94461240
:101FB00069837A838B839C830E9429136B017C0144
:101FC0002AE0AB01BC01C8010E94790E2D813E813F
:101FD000280F391F2D833E83B114E1F0B601C701EC
:101FE0000E9458139B01AC0169817A818B819C818D
:101FF0000E944512F62EE72ED82EC92E6EE2C80199
:102000000E94530E2D813E81280F391F2D833E8360
:10201000B1101EC08D819E810F900F900F900F9078
:102020000F900F90DF91CF911F910F91FF90EF9044
:10203000DF90CF90BF90AF9008951D821E82ADCFEC
:1020400020E030E040E251E40E94B712A394AACF0E
:10205000BA9420E030E040E251E46F2D7E2D8D2DCA
:102060009C2D0E94191469837A838B839C830E9420
:1020700029136B014AE050E0C8010E94660F2D81D0
:102080003E81280F391F2D833E83B60180E090E00A
:102090000E9458139B01AC0169817A818B819C81DC
:1020A0000E944512F62EE72ED82EC92EB1CF0C94E1
:1020B0006C0F2F932FB72F938F939F93EF93FF93D3
:1020C000E091F805F091F9058081E091FE05F0912D
:1020D000FF0582FD19C09081809101068F5F8F738B
:1020E00020910206821741F0E0910106F0E0E851EC
:1020F000FA4F958F80930106FF91EF919F918F91F9
:102100002F912FBF2F9118958081F6CF1F920F929C
:102110000FB60F9211242F933F934F935F936F93BA
:102120007F938F939F93AF93BF93EF93FF9388EE2B
:1021300095E00E940C11FF91EF91BF91AF919F919B
:102140008F917F916F915F914F913F912F910F9060
:102150000FBE0F901F901895E8EEF5E012821382E3
:1021600088EE93E0848395831682178283EA92E057
:102170008083918385EC8487158684EC8687178617
:1021800080EC808B118A81EC828B138A82EC848BA9
:10219000158A86EC868B178A118E128E138E148EFA
:1021A0000895FC01918D228D892F90E0805C9F4FD6
:1021B000821B91098F7390E00895FC01918D828DAF
:1021C000981731F0828DE80FF11D858D90E008950C
:1021D0008FEF9FEF0895FC01918D828D981761F02C
:1021E000A28DAE0FBF2FB11D5D968C91928D9F5F1A
:1021F0009F73928F90E008958FEF9FEF0895FC01F9
:10220000238D348D832F90E0821B9109231710F0CA
:10221000CF96089501970895FC01A48DA80FB92FBA
:10222000B11DA35ABF4F2C91848D01968F73848F5B
:10223000A689B7892C93A089B1898C918370806419
:102240008C93938D848D981306C00288F389E02DBA
:1022500080818F7D80830895CF93DF93EC01888DFB
:10226000811111C0DF91CF9108950FB607FC0DC009
:10227000808185FF0AC0A889B9898C9185FF05C036
:10228000CE010E940C11EA89FB89808185FDEDCF8A
:10229000A889B9898C9186FFE8CFE4CFEF92FF92AD
:1022A0000F931F93CF93DF93EC01F62E81E0888F7D
:1022B0009B8D8C8D98131AC0E889F989808185FFE0
:1022C00015C09FB7F894EE89FF896083E889F98982
:1022D00080818370806480839FBF81E090E0DF9184
:1022E000CF911F910F91FF90EF9008950B8D0F5F8D
:1022F0001F4F0F73E02E8C8D8E1579F0EB8DEC0F48
:10230000FD2FF11DE35AFF4FF0829FB7F8940B8F1A
:10231000EA89FB8980818062DECF0FB607FCEBCFB4
:10232000E889F989808185FFE6CFCE010E940C11F2
:10233000E2CFCF92DF92EF92FF92CF93DF9300D064
:102340000F92CDB7DEB78A839B836A017B01298315
:10235000DC015096ED91FD9182E08083C114B1EED5
:10236000DB06E104F10491F060E079E08DE390E0B8
:102370009A01A7010E948B1421503109410951098A
:1023800056954795379527953031B0F0AA81BB8196
:102390005096ED91FD91108260E874E88EE190E036
:1023A0009601A7010E948B1421503109410951095E
:1023B0005695479537952795AA81BB811C96ED9137
:1023C000FD913083ED91FD91208318961C92149716
:1023D000ED91FD91B981B083AA81BB815296ED91B7
:1023E000FD91808180618083FE91EE918081886083
:1023F0008083ED91FD91808180688083FE91EE91D4
:1024000080818F7D80830F900F900F90DF91CF910F
:10241000FF90EF90DF90CF900895FC0188279927D7
:10242000E89421912032E9F3293010F02E30C8F3DE
:102430002B3241F02D3239F4689404C00E943D12D1
:10244000820F911D219120532A30C0F31EF49095E4
:1024500081959F4F0895F8940C94B314FB01DC010F
:102460004150504048F001900D920020C9F701C042
:102470001D9241505040E0F708957AE0979F902DCB
:10248000879F802D910D112408955058BB27AA27AE
:102490000E945D120C94D0130E94C21338F00E9467
:1024A000C91320F039F49F3F19F426F40C94BF139C
:1024B0000EF4E095E7FB0C94B913E92F0E94E113A9
:1024C00058F3BA17620773078407950720F079F469
:1024D000A6F50C9403140EF4E0950B2EBA2FA02D44
:1024E0000B01B90190010C01CA01A0011124FF27C1
:1024F000591B99F0593F50F4503E68F11A16F040BC
:10250000A22F232F342F4427585FF3CF46953795BA
:102510002795A795F0405395C9F77EF41F16BA0B7F
:10252000620B730B840BBAF09150A1F0FF0FBB1F2D
:10253000661F771F881FC2F70EC0BA0F621F731F76
:10254000841F48F4879577956795B795F7959E3FD3
:1025500008F0B0CF9395880F08F09927EE0F979564
:10256000879508950E94951308F481E008950E94CC
:10257000CB120C94D0130E94C91358F00E94C213BE
:1025800040F029F45F3F29F00C94B91351110C94D9
:1025900004140C94BF130E94E11368F39923B1F360
:1025A000552391F3951B550BBB27AA276217730779
:1025B000840738F09F5F5F4F220F331F441FAA1F0D
:1025C000A9F335D00E2E3AF0E0E832D091505040C9
:1025D000E695001CCAF72BD0FE2F29D0660F771F77
:1025E000881FBB1F261737074807AB07B0E809F05D
:1025F000BB0B802DBF01FF2793585F4F3AF09E3FE2
:10260000510578F00C94B9130C9404145F3FE4F373
:10261000983ED4F3869577956795B795F7959F5F24
:10262000C9F7880F911D9695879597F90895E1E070
:10263000660F771F881FBB1F621773078407BA07CF
:1026400020F0621B730B840BBA0BEE1F88F7E0952A
:1026500008950E94E91388F09F5798F0B92F9927A1
:10266000B751B0F0E1F0660F771F881F991F1AF07D
:10267000BA95C9F714C0B13091F00E940314B1E0CB
:1026800008950C940314672F782F8827B85F39F0CA
:10269000B93FCCF3869577956795B395D9F73EF416
:1026A00090958095709561957F4F8F4F9F4F0895BE
:1026B000E89409C097FB3EF49095809570956195DC
:1026C0007F4F8F4F9F4F9923A9F0F92F96E9BB2792
:1026D0009395F695879577956795B795F111F8CF0E
:1026E000FAF4BB0F11F460FF1BC06F5F7F4F8F4F79
:1026F0009F4F16C0882311F096E911C0772321F06F
:102700009EE8872F762F05C0662371F096E8862F06
:1027100070E060E02AF09A95660F771F881FDAF75D
:10272000880F9695879597F90895990F0008550F8A
:10273000AA0BE0E8FEEF16161706E807F907C0F047
:1027400012161306E407F50798F0621B730B840B4F
:10275000950B39F40A2661F0232B242B252B21F429
:1027600008950A2609F4A140A6958FEF811D811DC9
:10277000089597F99F6780E870E060E008959FEF03
:1027800080EC089500240A94161617061806090608
:10279000089500240A9412161306140605060895D7
:1027A000092E0394000C11F4882352F0BB0F40F45F
:1027B000BF2B11F460FF04C06F5F7F4F8F4F9F4F9F
:1027C000089557FD9058440F551F59F05F3F71F021
:1027D0004795880F97FB991F61F09F3F79F0879588
:1027E0000895121613061406551FF2CF4695F1DF11
:1027F00008C0161617061806991FF1CF86957105A1
:10280000610508940895E894BB2766277727CB01D4
:1028100097F908950E94951308F48FEF08950E9488
:10282000E91380E090E020F419F40EF40297839508
:1028300008950E942C140C94D0130E94C21338F0F7
:102840000E94C91320F0952311F00C94B9130C9435
:10285000BF1311240C9404140E94E11370F3959F8C
:10286000C1F3950F50E0551F629FF001729FBB2787
:10287000F00DB11D639FAA27F00DB11DAA1F649F23
:102880006627B00DA11D661F829F2227B00DA11DD6
:10289000621F739FB00DA11D621F839FA00D611D5C
:1028A000221F749F3327A00D611D231F849F600D7D
:1028B000211D822F762F6A2F11249F5750409AF0A6
:1028C000F1F088234AF0EE0FFF1FBB1F661F771F32
:1028D000881F91505040A9F79E3F510580F00C94FD
:1028E000B9130C9404145F3FE4F3983ED4F3869537
:1028F00077956795B795F795E7959F5FC1F7FE2B9D
:10290000880F911D9695879597F908950E949513C4
:10291000880B990B0895A1E21A2EAA1BBB1BFD017F
:102920000DC0AA1FBB1FEE1FFF1FA217B307E407AE
:10293000F50720F0A21BB30BE40BF50B661F771F06
:10294000881F991F1A9469F76095709580959095E6
:102950009B01AC01BD01CF010895EE0FFF1F059053
:0A296000F491E02D0994F894FFCFE4
:10296A00000000000000000000000000000000005D
:10297A00000000000000000000000000000000004D
:10298A00000000000000000000000000000000003D
:10299A00000000000000000000000000000000002D
:1029AA00000000000000000000000000000000001D
:1029BA00000000000000000000000000000000000D
:1029CA000000000000000000FF00005C0200008719
:1029DA0005FFFFFFFFFFFFFFFF00003D02000000B1
:1029EA0000C8000000C80000000200000001000149
:1029FA00000000FFFF0000010000000000000000CE
:102A0A00000000000000000200FF0000B40DB40D39
:102A1A00FF5B44617368626F61726420446F6F7216
:102A2A00735D2042544E312D343D646F6F72732FA3
:102A3A00686F6F642F7472756E6B2C20504F54310F
:102A4A003D73706565642C20504F54323D72706D31
:102A5A0000737065656400646F6F72464C00646F42
:102A6A006F72465200646F6F72524C00646F6F72DD
:102A7A00525200686F6F64007472756E6B00646FF7
:102A8A006F724F70656E00214C003A000D0A006E9D
:102A9A00616E00696E66006F7666007B018F019534
:102AAA00084302F805008A0187054E025C02850484
:102ABA00870400011D0A0000000101008C058E0533
:102ACA005000480D000001000100A7010100001399
:102ADA0007E106EA06C306700460065D0489066813
:102AEA0007010609062C08520765087F079E08CECB
:102AFA0007DF08FC052F09A807A109E909F0070063
:102B0A000000004E11030EFF102C11D110EB10DD46
:022B1A001000A9
:00000001FF
